{
  "contractName": "_MintNFT",
  "abi": [
    {
      "inputs": [],
      "stateMutability": "nonpayable",
      "type": "constructor"
    },
    {
      "anonymous": false,
      "inputs": [
        {
          "indexed": true,
          "internalType": "address",
          "name": "owner",
          "type": "address"
        },
        {
          "indexed": true,
          "internalType": "address",
          "name": "approved",
          "type": "address"
        },
        {
          "indexed": true,
          "internalType": "uint256",
          "name": "tokenId",
          "type": "uint256"
        }
      ],
      "name": "Approval",
      "type": "event"
    },
    {
      "anonymous": false,
      "inputs": [
        {
          "indexed": true,
          "internalType": "address",
          "name": "owner",
          "type": "address"
        },
        {
          "indexed": true,
          "internalType": "address",
          "name": "operator",
          "type": "address"
        },
        {
          "indexed": false,
          "internalType": "bool",
          "name": "approved",
          "type": "bool"
        }
      ],
      "name": "ApprovalForAll",
      "type": "event"
    },
    {
      "anonymous": false,
      "inputs": [
        {
          "indexed": true,
          "internalType": "address",
          "name": "from",
          "type": "address"
        },
        {
          "indexed": true,
          "internalType": "address",
          "name": "to",
          "type": "address"
        },
        {
          "indexed": true,
          "internalType": "uint256",
          "name": "tokenId",
          "type": "uint256"
        }
      ],
      "name": "Transfer",
      "type": "event"
    },
    {
      "inputs": [
        {
          "internalType": "address",
          "name": "to",
          "type": "address"
        },
        {
          "internalType": "uint256",
          "name": "tokenId",
          "type": "uint256"
        }
      ],
      "name": "approve",
      "outputs": [],
      "stateMutability": "nonpayable",
      "type": "function"
    },
    {
      "inputs": [
        {
          "internalType": "address",
          "name": "owner",
          "type": "address"
        }
      ],
      "name": "balanceOf",
      "outputs": [
        {
          "internalType": "uint256",
          "name": "",
          "type": "uint256"
        }
      ],
      "stateMutability": "view",
      "type": "function"
    },
    {
      "inputs": [
        {
          "internalType": "uint256",
          "name": "",
          "type": "uint256"
        }
      ],
      "name": "coders",
      "outputs": [
        {
          "internalType": "string",
          "name": "",
          "type": "string"
        }
      ],
      "stateMutability": "view",
      "type": "function"
    },
    {
      "inputs": [
        {
          "internalType": "uint256",
          "name": "tokenId",
          "type": "uint256"
        }
      ],
      "name": "getApproved",
      "outputs": [
        {
          "internalType": "address",
          "name": "",
          "type": "address"
        }
      ],
      "stateMutability": "view",
      "type": "function"
    },
    {
      "inputs": [
        {
          "internalType": "address",
          "name": "owner",
          "type": "address"
        },
        {
          "internalType": "address",
          "name": "operator",
          "type": "address"
        }
      ],
      "name": "isApprovedForAll",
      "outputs": [
        {
          "internalType": "bool",
          "name": "",
          "type": "bool"
        }
      ],
      "stateMutability": "view",
      "type": "function"
    },
    {
      "inputs": [],
      "name": "name",
      "outputs": [
        {
          "internalType": "string",
          "name": "",
          "type": "string"
        }
      ],
      "stateMutability": "view",
      "type": "function"
    },
    {
      "inputs": [
        {
          "internalType": "uint256",
          "name": "tokenId",
          "type": "uint256"
        }
      ],
      "name": "ownerOf",
      "outputs": [
        {
          "internalType": "address",
          "name": "",
          "type": "address"
        }
      ],
      "stateMutability": "view",
      "type": "function"
    },
    {
      "inputs": [
        {
          "internalType": "address",
          "name": "from",
          "type": "address"
        },
        {
          "internalType": "address",
          "name": "to",
          "type": "address"
        },
        {
          "internalType": "uint256",
          "name": "tokenId",
          "type": "uint256"
        }
      ],
      "name": "safeTransferFrom",
      "outputs": [],
      "stateMutability": "nonpayable",
      "type": "function"
    },
    {
      "inputs": [
        {
          "internalType": "address",
          "name": "from",
          "type": "address"
        },
        {
          "internalType": "address",
          "name": "to",
          "type": "address"
        },
        {
          "internalType": "uint256",
          "name": "tokenId",
          "type": "uint256"
        },
        {
          "internalType": "bytes",
          "name": "data",
          "type": "bytes"
        }
      ],
      "name": "safeTransferFrom",
      "outputs": [],
      "stateMutability": "nonpayable",
      "type": "function"
    },
    {
      "inputs": [
        {
          "internalType": "address",
          "name": "operator",
          "type": "address"
        },
        {
          "internalType": "bool",
          "name": "approved",
          "type": "bool"
        }
      ],
      "name": "setApprovalForAll",
      "outputs": [],
      "stateMutability": "nonpayable",
      "type": "function"
    },
    {
      "inputs": [],
      "name": "symbol",
      "outputs": [
        {
          "internalType": "string",
          "name": "",
          "type": "string"
        }
      ],
      "stateMutability": "view",
      "type": "function"
    },
    {
      "inputs": [
        {
          "internalType": "uint256",
          "name": "index",
          "type": "uint256"
        }
      ],
      "name": "tokenByIndex",
      "outputs": [
        {
          "internalType": "uint256",
          "name": "",
          "type": "uint256"
        }
      ],
      "stateMutability": "view",
      "type": "function"
    },
    {
      "inputs": [
        {
          "internalType": "address",
          "name": "owner",
          "type": "address"
        },
        {
          "internalType": "uint256",
          "name": "index",
          "type": "uint256"
        }
      ],
      "name": "tokenOfOwnerByIndex",
      "outputs": [
        {
          "internalType": "uint256",
          "name": "",
          "type": "uint256"
        }
      ],
      "stateMutability": "view",
      "type": "function"
    },
    {
      "inputs": [
        {
          "internalType": "uint256",
          "name": "tokenId",
          "type": "uint256"
        }
      ],
      "name": "tokenURI",
      "outputs": [
        {
          "internalType": "string",
          "name": "",
          "type": "string"
        }
      ],
      "stateMutability": "view",
      "type": "function"
    },
    {
      "inputs": [],
      "name": "totalSupply",
      "outputs": [
        {
          "internalType": "uint256",
          "name": "",
          "type": "uint256"
        }
      ],
      "stateMutability": "view",
      "type": "function"
    },
    {
      "inputs": [
        {
          "internalType": "address",
          "name": "from",
          "type": "address"
        },
        {
          "internalType": "address",
          "name": "to",
          "type": "address"
        },
        {
          "internalType": "uint256",
          "name": "tokenId",
          "type": "uint256"
        }
      ],
      "name": "transferFrom",
      "outputs": [],
      "stateMutability": "nonpayable",
      "type": "function"
    },
    {
      "inputs": [
        {
          "internalType": "string",
          "name": "_coder",
          "type": "string"
        }
      ],
      "name": "_mint",
      "outputs": [],
      "stateMutability": "nonpayable",
      "type": "function"
    },
    {
      "inputs": [
        {
          "internalType": "bytes4",
          "name": "interfaceId",
          "type": "bytes4"
        }
      ],
      "name": "supportsInterface",
      "outputs": [
        {
          "internalType": "bool",
          "name": "",
          "type": "bool"
        }
      ],
      "stateMutability": "view",
      "type": "function"
    }
  ],
  "bytecode": "0x60806040523480156200001157600080fd5b506040518060400160405280600781526020017f4d696e744e4654000000000000000000000000000000000000000000000000008152506040518060400160405280600281526020017f434300000000000000000000000000000000000000000000000000000000000081525081600090816200008f919062000324565b508060019081620000a1919062000324565b5050506200040b565b600081519050919050565b7f4e487b7100000000000000000000000000000000000000000000000000000000600052604160045260246000fd5b7f4e487b7100000000000000000000000000000000000000000000000000000000600052602260045260246000fd5b600060028204905060018216806200012c57607f821691505b602082108103620001425762000141620000e4565b5b50919050565b60008190508160005260206000209050919050565b60006020601f8301049050919050565b600082821b905092915050565b600060088302620001ac7fffffffffffffffffffffffffffffffffffffffffffffffffffffffffffffffff826200016d565b620001b886836200016d565b95508019841693508086168417925050509392505050565b6000819050919050565b6000819050919050565b600062000205620001ff620001f984620001d0565b620001da565b620001d0565b9050919050565b6000819050919050565b6200022183620001e4565b6200023962000230826200020c565b8484546200017a565b825550505050565b600090565b6200025062000241565b6200025d81848462000216565b505050565b5b8181101562000285576200027960008262000246565b60018101905062000263565b5050565b601f821115620002d4576200029e8162000148565b620002a9846200015d565b81016020851015620002b9578190505b620002d1620002c8856200015d565b83018262000262565b50505b505050565b600082821c905092915050565b6000620002f960001984600802620002d9565b1980831691505092915050565b6000620003148383620002e6565b9150826002028217905092915050565b6200032f82620000aa565b67ffffffffffffffff8111156200034b576200034a620000b5565b5b62000357825462000113565b6200036482828562000289565b600060209050601f8311600181146200039c576000841562000387578287015190505b62000393858262000306565b86555062000403565b601f198416620003ac8662000148565b60005b82811015620003d657848901518255600182019150602085019450602081019050620003af565b86831015620003f65784890151620003f2601f891682620002e6565b8355505b6001600288020188555050505b505050505050565b6133d1806200041b6000396000f3fe608060405234801561001057600080fd5b50600436106101165760003560e01c80634cfa16f9116100a257806395d89b411161007157806395d89b4114610317578063a22cb46514610335578063b88d4fde14610351578063c87b56dd1461036d578063e985e9c51461039d57610116565b80634cfa16f9146102575780634f6ccce7146102875780636352211e146102b757806370a08231146102e757610116565b806318160ddd116100e957806318160ddd146101b557806323b872dd146101d35780632f745c59146101ef57806342842e0e1461021f5780634b4938631461023b57610116565b806301ffc9a71461011b57806306fdde031461014b578063081812fc14610169578063095ea7b314610199575b600080fd5b610135600480360381019061013091906120a3565b6103cd565b60405161014291906120eb565b60405180910390f35b6101536103df565b6040516101609190612196565b60405180910390f35b610183600480360381019061017e91906121ee565b610471565b604051610190919061225c565b60405180910390f35b6101b360048036038101906101ae91906122a3565b6104b7565b005b6101bd6105ce565b6040516101ca91906122f2565b60405180910390f35b6101ed60048036038101906101e8919061230d565b6105db565b005b610209600480360381019061020491906122a3565b61063b565b60405161021691906122f2565b60405180910390f35b6102396004803603810190610234919061230d565b6106e0565b005b61025560048036038101906102509190612495565b610700565b005b610271600480360381019061026c91906121ee565b610790565b60405161027e9190612196565b60405180910390f35b6102a1600480360381019061029c91906121ee565b61083c565b6040516102ae91906122f2565b60405180910390f35b6102d160048036038101906102cc91906121ee565b6108ad565b6040516102de919061225c565b60405180910390f35b61030160048036038101906102fc91906124de565b610933565b60405161030e91906122f2565b60405180910390f35b61031f6109ea565b60405161032c9190612196565b60405180910390f35b61034f600480360381019061034a9190612537565b610a7c565b005b61036b60048036038101906103669190612618565b610a92565b005b610387600480360381019061038291906121ee565b610af4565b6040516103949190612196565b60405180910390f35b6103b760048036038101906103b2919061269b565b610b5c565b6040516103c491906120eb565b60405180910390f35b60006103d882610bf0565b9050919050565b6060600080546103ee9061270a565b80601f016020809104026020016040519081016040528092919081815260200182805461041a9061270a565b80156104675780601f1061043c57610100808354040283529160200191610467565b820191906000526020600020905b81548152906001019060200180831161044a57829003601f168201915b5050505050905090565b600061047c82610c6a565b6004600083815260200190815260200160002060009054906101000a900473ffffffffffffffffffffffffffffffffffffffff169050919050565b60006104c2826108ad565b90508073ffffffffffffffffffffffffffffffffffffffff168373ffffffffffffffffffffffffffffffffffffffff1603610532576040517f08c379a0000000000000000000000000000000000000000000000000000000008152600401610529906127ad565b60405180910390fd5b8073ffffffffffffffffffffffffffffffffffffffff16610551610cb5565b73ffffffffffffffffffffffffffffffffffffffff161480610580575061057f8161057a610cb5565b610b5c565b5b6105bf576040517f08c379a00000000000000000000000000000000000000000000000000000000081526004016105b69061283f565b60405180910390fd5b6105c98383610cbd565b505050565b6000600880549050905090565b6105ec6105e6610cb5565b82610d76565b61062b576040517f08c379a0000000000000000000000000000000000000000000000000000000008152600401610622906128d1565b60405180910390fd5b610636838383610e0b565b505050565b600061064683610933565b8210610687576040517f08c379a000000000000000000000000000000000000000000000000000000000815260040161067e90612963565b60405180910390fd5b600660008473ffffffffffffffffffffffffffffffffffffffff1673ffffffffffffffffffffffffffffffffffffffff168152602001908152602001600020600083815260200190815260200160002054905092915050565b6106fb83838360405180602001604052806000815250610a92565b505050565b600a819080600181540180825580915050600190039060005260206000200160009091909190915090816107349190612b2f565b5060006001600a805490506107499190612c30565b90506107553382611104565b6001600b836040516107679190612ca0565b908152602001604051809103902060006101000a81548160ff0219169083151502179055505050565b600a81815481106107a057600080fd5b9060005260206000200160009150905080546107bb9061270a565b80601f01602080910402602001604051908101604052809291908181526020018280546107e79061270a565b80156108345780601f1061080957610100808354040283529160200191610834565b820191906000526020600020905b81548152906001019060200180831161081757829003601f168201915b505050505081565b60006108466105ce565b8210610887576040517f08c379a000000000000000000000000000000000000000000000000000000000815260040161087e90612d29565b60405180910390fd5b6008828154811061089b5761089a612d49565b5b90600052602060002001549050919050565b6000806108b983611321565b9050600073ffffffffffffffffffffffffffffffffffffffff168173ffffffffffffffffffffffffffffffffffffffff160361092a576040517f08c379a000000000000000000000000000000000000000000000000000000000815260040161092190612dc4565b60405180910390fd5b80915050919050565b60008073ffffffffffffffffffffffffffffffffffffffff168273ffffffffffffffffffffffffffffffffffffffff16036109a3576040517f08c379a000000000000000000000000000000000000000000000000000000000815260040161099a90612e56565b60405180910390fd5b600360008373ffffffffffffffffffffffffffffffffffffffff1673ffffffffffffffffffffffffffffffffffffffff168152602001908152602001600020549050919050565b6060600180546109f99061270a565b80601f0160208091040260200160405190810160405280929190818152602001828054610a259061270a565b8015610a725780601f10610a4757610100808354040283529160200191610a72565b820191906000526020600020905b815481529060010190602001808311610a5557829003601f168201915b5050505050905090565b610a8e610a87610cb5565b838361135e565b5050565b610aa3610a9d610cb5565b83610d76565b610ae2576040517f08c379a0000000000000000000000000000000000000000000000000000000008152600401610ad9906128d1565b60405180910390fd5b610aee848484846114ca565b50505050565b6060610aff82610c6a565b6000610b09611526565b90506000815111610b295760405180602001604052806000815250610b54565b80610b338461153d565b604051602001610b44929190612e76565b6040516020818303038152906040525b915050919050565b6000600560008473ffffffffffffffffffffffffffffffffffffffff1673ffffffffffffffffffffffffffffffffffffffff16815260200190815260200160002060008373ffffffffffffffffffffffffffffffffffffffff1673ffffffffffffffffffffffffffffffffffffffff16815260200190815260200160002060009054906101000a900460ff16905092915050565b60007f780e9d63000000000000000000000000000000000000000000000000000000007bffffffffffffffffffffffffffffffffffffffffffffffffffffffff1916827bffffffffffffffffffffffffffffffffffffffffffffffffffffffff19161480610c635750610c628261160b565b5b9050919050565b610c73816116ed565b610cb2576040517f08c379a0000000000000000000000000000000000000000000000000000000008152600401610ca990612dc4565b60405180910390fd5b50565b600033905090565b816004600083815260200190815260200160002060006101000a81548173ffffffffffffffffffffffffffffffffffffffff021916908373ffffffffffffffffffffffffffffffffffffffff160217905550808273ffffffffffffffffffffffffffffffffffffffff16610d30836108ad565b73ffffffffffffffffffffffffffffffffffffffff167f8c5be1e5ebec7d5bd14f71427d1e84f3dd0314c0f7b2291e5b200ac8c7c3b92560405160405180910390a45050565b600080610d82836108ad565b90508073ffffffffffffffffffffffffffffffffffffffff168473ffffffffffffffffffffffffffffffffffffffff161480610dc45750610dc38185610b5c565b5b80610e0257508373ffffffffffffffffffffffffffffffffffffffff16610dea84610471565b73ffffffffffffffffffffffffffffffffffffffff16145b91505092915050565b8273ffffffffffffffffffffffffffffffffffffffff16610e2b826108ad565b73ffffffffffffffffffffffffffffffffffffffff1614610e81576040517f08c379a0000000000000000000000000000000000000000000000000000000008152600401610e7890612f0c565b60405180910390fd5b600073ffffffffffffffffffffffffffffffffffffffff168273ffffffffffffffffffffffffffffffffffffffff1603610ef0576040517f08c379a0000000000000000000000000000000000000000000000000000000008152600401610ee790612f9e565b60405180910390fd5b610efd838383600161172e565b8273ffffffffffffffffffffffffffffffffffffffff16610f1d826108ad565b73ffffffffffffffffffffffffffffffffffffffff1614610f73576040517f08c379a0000000000000000000000000000000000000000000000000000000008152600401610f6a90612f0c565b60405180910390fd5b6004600082815260200190815260200160002060006101000a81549073ffffffffffffffffffffffffffffffffffffffff02191690556001600360008573ffffffffffffffffffffffffffffffffffffffff1673ffffffffffffffffffffffffffffffffffffffff168152602001908152602001600020600082825403925050819055506001600360008473ffffffffffffffffffffffffffffffffffffffff1673ffffffffffffffffffffffffffffffffffffffff16815260200190815260200160002060008282540192505081905550816002600083815260200190815260200160002060006101000a81548173ffffffffffffffffffffffffffffffffffffffff021916908373ffffffffffffffffffffffffffffffffffffffff160217905550808273ffffffffffffffffffffffffffffffffffffffff168473ffffffffffffffffffffffffffffffffffffffff167fddf252ad1be2c89b69c2b068fc378daa952ba7f163c4a11628f55a4df523b3ef60405160405180910390a46110ff8383836001611740565b505050565b600073ffffffffffffffffffffffffffffffffffffffff168273ffffffffffffffffffffffffffffffffffffffff1603611173576040517f08c379a000000000000000000000000000000000000000000000000000000000815260040161116a9061300a565b60405180910390fd5b61117c816116ed565b156111bc576040517f08c379a00000000000000000000000000000000000000000000000000000000081526004016111b390613076565b60405180910390fd5b6111ca60008383600161172e565b6111d3816116ed565b15611213576040517f08c379a000000000000000000000000000000000000000000000000000000000815260040161120a90613076565b60405180910390fd5b6001600360008473ffffffffffffffffffffffffffffffffffffffff1673ffffffffffffffffffffffffffffffffffffffff16815260200190815260200160002060008282540192505081905550816002600083815260200190815260200160002060006101000a81548173ffffffffffffffffffffffffffffffffffffffff021916908373ffffffffffffffffffffffffffffffffffffffff160217905550808273ffffffffffffffffffffffffffffffffffffffff16600073ffffffffffffffffffffffffffffffffffffffff167fddf252ad1be2c89b69c2b068fc378daa952ba7f163c4a11628f55a4df523b3ef60405160405180910390a461131d600083836001611740565b5050565b60006002600083815260200190815260200160002060009054906101000a900473ffffffffffffffffffffffffffffffffffffffff169050919050565b8173ffffffffffffffffffffffffffffffffffffffff168373ffffffffffffffffffffffffffffffffffffffff16036113cc576040517f08c379a00000000000000000000000000000000000000000000000000000000081526004016113c3906130e2565b60405180910390fd5b80600560008573ffffffffffffffffffffffffffffffffffffffff1673ffffffffffffffffffffffffffffffffffffffff16815260200190815260200160002060008473ffffffffffffffffffffffffffffffffffffffff1673ffffffffffffffffffffffffffffffffffffffff16815260200190815260200160002060006101000a81548160ff0219169083151502179055508173ffffffffffffffffffffffffffffffffffffffff168373ffffffffffffffffffffffffffffffffffffffff167f17307eab39ab6107e8899845ad3d59bd9653f200f220920489ca2b5937696c31836040516114bd91906120eb565b60405180910390a3505050565b6114d5848484610e0b565b6114e184848484611746565b611520576040517f08c379a000000000000000000000000000000000000000000000000000000000815260040161151790613174565b60405180910390fd5b50505050565b606060405180602001604052806000815250905090565b60606000600161154c846118cd565b01905060008167ffffffffffffffff81111561156b5761156a61236a565b5b6040519080825280601f01601f19166020018201604052801561159d5781602001600182028036833780820191505090505b509050600082602001820190505b600115611600578080600190039150507f3031323334353637383961626364656600000000000000000000000000000000600a86061a8153600a85816115f4576115f3613194565b5b049450600085036115ab575b819350505050919050565b60007f80ac58cd000000000000000000000000000000000000000000000000000000007bffffffffffffffffffffffffffffffffffffffffffffffffffffffff1916827bffffffffffffffffffffffffffffffffffffffffffffffffffffffff191614806116d657507f5b5e139f000000000000000000000000000000000000000000000000000000007bffffffffffffffffffffffffffffffffffffffffffffffffffffffff1916827bffffffffffffffffffffffffffffffffffffffffffffffffffffffff1916145b806116e657506116e582611a20565b5b9050919050565b60008073ffffffffffffffffffffffffffffffffffffffff1661170f83611321565b73ffffffffffffffffffffffffffffffffffffffff1614159050919050565b61173a84848484611a8a565b50505050565b50505050565b60006117678473ffffffffffffffffffffffffffffffffffffffff16611be8565b156118c0578373ffffffffffffffffffffffffffffffffffffffff1663150b7a02611790610cb5565b8786866040518563ffffffff1660e01b81526004016117b29493929190613218565b6020604051808303816000875af19250505080156117ee57506040513d601f19601f820116820180604052508101906117eb9190613279565b60015b611870573d806000811461181e576040519150601f19603f3d011682016040523d82523d6000602084013e611823565b606091505b506000815103611868576040517f08c379a000000000000000000000000000000000000000000000000000000000815260040161185f90613174565b60405180910390fd5b805181602001fd5b63150b7a0260e01b7bffffffffffffffffffffffffffffffffffffffffffffffffffffffff1916817bffffffffffffffffffffffffffffffffffffffffffffffffffffffff1916149150506118c5565b600190505b949350505050565b600080600090507a184f03e93ff9f4daa797ed6e38ed64bf6a1f010000000000000000831061192b577a184f03e93ff9f4daa797ed6e38ed64bf6a1f010000000000000000838161192157611920613194565b5b0492506040810190505b6d04ee2d6d415b85acef81000000008310611968576d04ee2d6d415b85acef8100000000838161195e5761195d613194565b5b0492506020810190505b662386f26fc10000831061199757662386f26fc10000838161198d5761198c613194565b5b0492506010810190505b6305f5e10083106119c0576305f5e10083816119b6576119b5613194565b5b0492506008810190505b61271083106119e55761271083816119db576119da613194565b5b0492506004810190505b60648310611a0857606483816119fe576119fd613194565b5b0492506002810190505b600a8310611a17576001810190505b80915050919050565b60007f01ffc9a7000000000000000000000000000000000000000000000000000000007bffffffffffffffffffffffffffffffffffffffffffffffffffffffff1916827bffffffffffffffffffffffffffffffffffffffffffffffffffffffff1916149050919050565b611a9684848484611c0b565b6001811115611ada576040517f08c379a0000000000000000000000000000000000000000000000000000000008152600401611ad190613318565b60405180910390fd5b6000829050600073ffffffffffffffffffffffffffffffffffffffff168573ffffffffffffffffffffffffffffffffffffffff1603611b2157611b1c81611d31565b611b60565b8373ffffffffffffffffffffffffffffffffffffffff168573ffffffffffffffffffffffffffffffffffffffff1614611b5f57611b5e8582611d7a565b5b5b600073ffffffffffffffffffffffffffffffffffffffff168473ffffffffffffffffffffffffffffffffffffffff1603611ba257611b9d81611ee7565b611be1565b8473ffffffffffffffffffffffffffffffffffffffff168473ffffffffffffffffffffffffffffffffffffffff1614611be057611bdf8482611fb8565b5b5b5050505050565b6000808273ffffffffffffffffffffffffffffffffffffffff163b119050919050565b6001811115611d2b57600073ffffffffffffffffffffffffffffffffffffffff168473ffffffffffffffffffffffffffffffffffffffff1614611c9f5780600360008673ffffffffffffffffffffffffffffffffffffffff1673ffffffffffffffffffffffffffffffffffffffff1681526020019081526020016000206000828254611c979190612c30565b925050819055505b600073ffffffffffffffffffffffffffffffffffffffff168373ffffffffffffffffffffffffffffffffffffffff1614611d2a5780600360008573ffffffffffffffffffffffffffffffffffffffff1673ffffffffffffffffffffffffffffffffffffffff1681526020019081526020016000206000828254611d229190613338565b925050819055505b5b50505050565b6008805490506009600083815260200190815260200160002081905550600881908060018154018082558091505060019003906000526020600020016000909190919091505550565b60006001611d8784610933565b611d919190612c30565b9050600060076000848152602001908152602001600020549050818114611e76576000600660008673ffffffffffffffffffffffffffffffffffffffff1673ffffffffffffffffffffffffffffffffffffffff168152602001908152602001600020600084815260200190815260200160002054905080600660008773ffffffffffffffffffffffffffffffffffffffff1673ffffffffffffffffffffffffffffffffffffffff168152602001908152602001600020600084815260200190815260200160002081905550816007600083815260200190815260200160002081905550505b6007600084815260200190815260200160002060009055600660008573ffffffffffffffffffffffffffffffffffffffff1673ffffffffffffffffffffffffffffffffffffffff16815260200190815260200160002060008381526020019081526020016000206000905550505050565b60006001600880549050611efb9190612c30565b9050600060096000848152602001908152602001600020549050600060088381548110611f2b57611f2a612d49565b5b906000526020600020015490508060088381548110611f4d57611f4c612d49565b5b906000526020600020018190555081600960008381526020019081526020016000208190555060096000858152602001908152602001600020600090556008805480611f9c57611f9b61336c565b5b6001900381819060005260206000200160009055905550505050565b6000611fc383610933565b905081600660008573ffffffffffffffffffffffffffffffffffffffff1673ffffffffffffffffffffffffffffffffffffffff168152602001908152602001600020600083815260200190815260200160002081905550806007600084815260200190815260200160002081905550505050565b6000604051905090565b600080fd5b600080fd5b60007fffffffff0000000000000000000000000000000000000000000000000000000082169050919050565b6120808161204b565b811461208b57600080fd5b50565b60008135905061209d81612077565b92915050565b6000602082840312156120b9576120b8612041565b5b60006120c78482850161208e565b91505092915050565b60008115159050919050565b6120e5816120d0565b82525050565b600060208201905061210060008301846120dc565b92915050565b600081519050919050565b600082825260208201905092915050565b60005b83811015612140578082015181840152602081019050612125565b60008484015250505050565b6000601f19601f8301169050919050565b600061216882612106565b6121728185612111565b9350612182818560208601612122565b61218b8161214c565b840191505092915050565b600060208201905081810360008301526121b0818461215d565b905092915050565b6000819050919050565b6121cb816121b8565b81146121d657600080fd5b50565b6000813590506121e8816121c2565b92915050565b60006020828403121561220457612203612041565b5b6000612212848285016121d9565b91505092915050565b600073ffffffffffffffffffffffffffffffffffffffff82169050919050565b60006122468261221b565b9050919050565b6122568161223b565b82525050565b6000602082019050612271600083018461224d565b92915050565b6122808161223b565b811461228b57600080fd5b50565b60008135905061229d81612277565b92915050565b600080604083850312156122ba576122b9612041565b5b60006122c88582860161228e565b92505060206122d9858286016121d9565b9150509250929050565b6122ec816121b8565b82525050565b600060208201905061230760008301846122e3565b92915050565b60008060006060848603121561232657612325612041565b5b60006123348682870161228e565b93505060206123458682870161228e565b9250506040612356868287016121d9565b9150509250925092565b600080fd5b600080fd5b7f4e487b7100000000000000000000000000000000000000000000000000000000600052604160045260246000fd5b6123a28261214c565b810181811067ffffffffffffffff821117156123c1576123c061236a565b5b80604052505050565b60006123d4612037565b90506123e08282612399565b919050565b600067ffffffffffffffff821115612400576123ff61236a565b5b6124098261214c565b9050602081019050919050565b82818337600083830152505050565b6000612438612433846123e5565b6123ca565b90508281526020810184848401111561245457612453612365565b5b61245f848285612416565b509392505050565b600082601f83011261247c5761247b612360565b5b813561248c848260208601612425565b91505092915050565b6000602082840312156124ab576124aa612041565b5b600082013567ffffffffffffffff8111156124c9576124c8612046565b5b6124d584828501612467565b91505092915050565b6000602082840312156124f4576124f3612041565b5b60006125028482850161228e565b91505092915050565b612514816120d0565b811461251f57600080fd5b50565b6000813590506125318161250b565b92915050565b6000806040838503121561254e5761254d612041565b5b600061255c8582860161228e565b925050602061256d85828601612522565b9150509250929050565b600067ffffffffffffffff8211156125925761259161236a565b5b61259b8261214c565b9050602081019050919050565b60006125bb6125b684612577565b6123ca565b9050828152602081018484840111156125d7576125d6612365565b5b6125e2848285612416565b509392505050565b600082601f8301126125ff576125fe612360565b5b813561260f8482602086016125a8565b91505092915050565b6000806000806080858703121561263257612631612041565b5b60006126408782880161228e565b94505060206126518782880161228e565b9350506040612662878288016121d9565b925050606085013567ffffffffffffffff81111561268357612682612046565b5b61268f878288016125ea565b91505092959194509250565b600080604083850312156126b2576126b1612041565b5b60006126c08582860161228e565b92505060206126d18582860161228e565b9150509250929050565b7f4e487b7100000000000000000000000000000000000000000000000000000000600052602260045260246000fd5b6000600282049050600182168061272257607f821691505b602082108103612735576127346126db565b5b50919050565b7f4552433732313a20617070726f76616c20746f2063757272656e74206f776e6560008201527f7200000000000000000000000000000000000000000000000000000000000000602082015250565b6000612797602183612111565b91506127a28261273b565b604082019050919050565b600060208201905081810360008301526127c68161278a565b9050919050565b7f4552433732313a20617070726f76652063616c6c6572206973206e6f7420746f60008201527f6b656e206f776e6572206f7220617070726f76656420666f7220616c6c000000602082015250565b6000612829603d83612111565b9150612834826127cd565b604082019050919050565b600060208201905081810360008301526128588161281c565b9050919050565b7f4552433732313a2063616c6c6572206973206e6f7420746f6b656e206f776e6560008201527f72206f7220617070726f76656400000000000000000000000000000000000000602082015250565b60006128bb602d83612111565b91506128c68261285f565b604082019050919050565b600060208201905081810360008301526128ea816128ae565b9050919050565b7f455243373231456e756d657261626c653a206f776e657220696e646578206f7560008201527f74206f6620626f756e6473000000000000000000000000000000000000000000602082015250565b600061294d602b83612111565b9150612958826128f1565b604082019050919050565b6000602082019050818103600083015261297c81612940565b9050919050565b60008190508160005260206000209050919050565b60006020601f8301049050919050565b600082821b905092915050565b6000600883026129e57fffffffffffffffffffffffffffffffffffffffffffffffffffffffffffffffff826129a8565b6129ef86836129a8565b95508019841693508086168417925050509392505050565b6000819050919050565b6000612a2c612a27612a22846121b8565b612a07565b6121b8565b9050919050565b6000819050919050565b612a4683612a11565b612a5a612a5282612a33565b8484546129b5565b825550505050565b600090565b612a6f612a62565b612a7a818484612a3d565b505050565b5b81811015612a9e57612a93600082612a67565b600181019050612a80565b5050565b601f821115612ae357612ab481612983565b612abd84612998565b81016020851015612acc578190505b612ae0612ad885612998565b830182612a7f565b50505b505050565b600082821c905092915050565b6000612b0660001984600802612ae8565b1980831691505092915050565b6000612b1f8383612af5565b9150826002028217905092915050565b612b3882612106565b67ffffffffffffffff811115612b5157612b5061236a565b5b612b5b825461270a565b612b66828285612aa2565b600060209050601f831160018114612b995760008415612b87578287015190505b612b918582612b13565b865550612bf9565b601f198416612ba786612983565b60005b82811015612bcf57848901518255600182019150602085019450602081019050612baa565b86831015612bec5784890151612be8601f891682612af5565b8355505b6001600288020188555050505b505050505050565b7f4e487b7100000000000000000000000000000000000000000000000000000000600052601160045260246000fd5b6000612c3b826121b8565b9150612c46836121b8565b9250828203905081811115612c5e57612c5d612c01565b5b92915050565b600081905092915050565b6000612c7a82612106565b612c848185612c64565b9350612c94818560208601612122565b80840191505092915050565b6000612cac8284612c6f565b915081905092915050565b7f455243373231456e756d657261626c653a20676c6f62616c20696e646578206f60008201527f7574206f6620626f756e64730000000000000000000000000000000000000000602082015250565b6000612d13602c83612111565b9150612d1e82612cb7565b604082019050919050565b60006020820190508181036000830152612d4281612d06565b9050919050565b7f4e487b7100000000000000000000000000000000000000000000000000000000600052603260045260246000fd5b7f4552433732313a20696e76616c696420746f6b656e2049440000000000000000600082015250565b6000612dae601883612111565b9150612db982612d78565b602082019050919050565b60006020820190508181036000830152612ddd81612da1565b9050919050565b7f4552433732313a2061646472657373207a65726f206973206e6f74206120766160008201527f6c6964206f776e65720000000000000000000000000000000000000000000000602082015250565b6000612e40602983612111565b9150612e4b82612de4565b604082019050919050565b60006020820190508181036000830152612e6f81612e33565b9050919050565b6000612e828285612c6f565b9150612e8e8284612c6f565b91508190509392505050565b7f4552433732313a207472616e736665722066726f6d20696e636f72726563742060008201527f6f776e6572000000000000000000000000000000000000000000000000000000602082015250565b6000612ef6602583612111565b9150612f0182612e9a565b604082019050919050565b60006020820190508181036000830152612f2581612ee9565b9050919050565b7f4552433732313a207472616e7366657220746f20746865207a65726f2061646460008201527f7265737300000000000000000000000000000000000000000000000000000000602082015250565b6000612f88602483612111565b9150612f9382612f2c565b604082019050919050565b60006020820190508181036000830152612fb781612f7b565b9050919050565b7f4552433732313a206d696e7420746f20746865207a65726f2061646472657373600082015250565b6000612ff4602083612111565b9150612fff82612fbe565b602082019050919050565b6000602082019050818103600083015261302381612fe7565b9050919050565b7f4552433732313a20746f6b656e20616c7265616479206d696e74656400000000600082015250565b6000613060601c83612111565b915061306b8261302a565b602082019050919050565b6000602082019050818103600083015261308f81613053565b9050919050565b7f4552433732313a20617070726f766520746f2063616c6c657200000000000000600082015250565b60006130cc601983612111565b91506130d782613096565b602082019050919050565b600060208201905081810360008301526130fb816130bf565b9050919050565b7f4552433732313a207472616e7366657220746f206e6f6e20455243373231526560008201527f63656976657220696d706c656d656e7465720000000000000000000000000000602082015250565b600061315e603283612111565b915061316982613102565b604082019050919050565b6000602082019050818103600083015261318d81613151565b9050919050565b7f4e487b7100000000000000000000000000000000000000000000000000000000600052601260045260246000fd5b600081519050919050565b600082825260208201905092915050565b60006131ea826131c3565b6131f481856131ce565b9350613204818560208601612122565b61320d8161214c565b840191505092915050565b600060808201905061322d600083018761224d565b61323a602083018661224d565b61324760408301856122e3565b818103606083015261325981846131df565b905095945050505050565b60008151905061327381612077565b92915050565b60006020828403121561328f5761328e612041565b5b600061329d84828501613264565b91505092915050565b7f455243373231456e756d657261626c653a20636f6e736563757469766520747260008201527f616e7366657273206e6f7420737570706f727465640000000000000000000000602082015250565b6000613302603583612111565b915061330d826132a6565b604082019050919050565b60006020820190508181036000830152613331816132f5565b9050919050565b6000613343826121b8565b915061334e836121b8565b925082820190508082111561336657613365612c01565b5b92915050565b7f4e487b7100000000000000000000000000000000000000000000000000000000600052603160045260246000fdfea2646970667358221220d03a2744838bd4b7081115e120b0e89a7f510e4a20726ea628ece5097add4a3964736f6c63430008110033",
  "immutableReferences": {},
  "source": "// SPDX-License-Identifier: MIT\r\npragma solidity ^0.8.0;\r\n\r\nimport \"../node_modules/@openzeppelin/contracts/token/ERC721/ERC721.sol\";\r\nimport \"../node_modules/@openzeppelin/contracts/token/ERC721/extensions/ERC721Enumerable.sol\";\r\n\r\ncontract _MintNFT is ERC721, ERC721Enumerable {\r\n\r\n    string[] public coders;\r\n    mapping(string => bool) _coderExists;\r\n\r\n    constructor() ERC721(\"MintNFT\", \"CC\") {\r\n    }\r\n\r\n    function _mint(string memory _coder)  public {\r\n        coders.push(_coder);\r\n        uint _id = coders.length - 1;\r\n        _mint(msg.sender, _id);\r\n        _coderExists[_coder] = true;\r\n    }\r\n\r\nfunction _beforeTokenTransfer(address from, address to, uint256 tokenId,uint256 batchSize)\r\n        internal override(ERC721, ERC721Enumerable)\r\n    {\r\n        super._beforeTokenTransfer(from, to, tokenId,batchSize);\r\n    }\r\n\r\n\r\n    function supportsInterface(bytes4 interfaceId) public view\r\n        override(ERC721, ERC721Enumerable)\r\n        returns (bool)\r\n    {\r\n        return super.supportsInterface(interfaceId);\r\n    }\r\n}\r\n",
  "sourcePath": "C:\\0000\\Dev\\Blockchain\\nft-apis\\contracts\\_MintNFT.sol",
  "compiler": {
    "name": "solc",
    "version": "0.8.17+commit.8df45f5f.Emscripten.clang"
  },
  "schemaVersion": "3.4.10",
  "updatedAt": "2022-11-29T03:25:16.305Z",
  "devdoc": {
    "kind": "dev",
    "methods": {
      "approve(address,uint256)": {
        "details": "See {IERC721-approve}."
      },
      "balanceOf(address)": {
        "details": "See {IERC721-balanceOf}."
      },
      "getApproved(uint256)": {
        "details": "See {IERC721-getApproved}."
      },
      "isApprovedForAll(address,address)": {
        "details": "See {IERC721-isApprovedForAll}."
      },
      "name()": {
        "details": "See {IERC721Metadata-name}."
      },
      "ownerOf(uint256)": {
        "details": "See {IERC721-ownerOf}."
      },
      "safeTransferFrom(address,address,uint256)": {
        "details": "See {IERC721-safeTransferFrom}."
      },
      "safeTransferFrom(address,address,uint256,bytes)": {
        "details": "See {IERC721-safeTransferFrom}."
      },
      "setApprovalForAll(address,bool)": {
        "details": "See {IERC721-setApprovalForAll}."
      },
      "symbol()": {
        "details": "See {IERC721Metadata-symbol}."
      },
      "tokenByIndex(uint256)": {
        "details": "See {IERC721Enumerable-tokenByIndex}."
      },
      "tokenOfOwnerByIndex(address,uint256)": {
        "details": "See {IERC721Enumerable-tokenOfOwnerByIndex}."
      },
      "tokenURI(uint256)": {
        "details": "See {IERC721Metadata-tokenURI}."
      },
      "totalSupply()": {
        "details": "See {IERC721Enumerable-totalSupply}."
      },
      "transferFrom(address,address,uint256)": {
        "details": "See {IERC721-transferFrom}."
      }
    },
    "version": 1
  },
  "userdoc": {
    "kind": "user",
    "methods": {},
    "version": 1
  }
}