{
  "contractName": "MintNFT",
  "abi": [
    {
      "inputs": [],
      "stateMutability": "nonpayable",
      "type": "constructor"
    },
    {
      "anonymous": false,
      "inputs": [
        {
          "indexed": true,
          "internalType": "address",
          "name": "owner",
          "type": "address"
        },
        {
          "indexed": true,
          "internalType": "address",
          "name": "approved",
          "type": "address"
        },
        {
          "indexed": true,
          "internalType": "uint256",
          "name": "tokenId",
          "type": "uint256"
        }
      ],
      "name": "Approval",
      "type": "event"
    },
    {
      "anonymous": false,
      "inputs": [
        {
          "indexed": true,
          "internalType": "address",
          "name": "owner",
          "type": "address"
        },
        {
          "indexed": true,
          "internalType": "address",
          "name": "operator",
          "type": "address"
        },
        {
          "indexed": false,
          "internalType": "bool",
          "name": "approved",
          "type": "bool"
        }
      ],
      "name": "ApprovalForAll",
      "type": "event"
    },
    {
      "anonymous": false,
      "inputs": [
        {
          "indexed": true,
          "internalType": "address",
          "name": "from",
          "type": "address"
        },
        {
          "indexed": true,
          "internalType": "address",
          "name": "to",
          "type": "address"
        },
        {
          "indexed": true,
          "internalType": "uint256",
          "name": "tokenId",
          "type": "uint256"
        }
      ],
      "name": "Transfer",
      "type": "event"
    },
    {
      "inputs": [
        {
          "internalType": "address",
          "name": "to",
          "type": "address"
        },
        {
          "internalType": "uint256",
          "name": "tokenId",
          "type": "uint256"
        }
      ],
      "name": "approve",
      "outputs": [],
      "stateMutability": "nonpayable",
      "type": "function"
    },
    {
      "inputs": [
        {
          "internalType": "address",
          "name": "owner",
          "type": "address"
        }
      ],
      "name": "balanceOf",
      "outputs": [
        {
          "internalType": "uint256",
          "name": "",
          "type": "uint256"
        }
      ],
      "stateMutability": "view",
      "type": "function"
    },
    {
      "inputs": [
        {
          "internalType": "uint256",
          "name": "",
          "type": "uint256"
        }
      ],
      "name": "coders",
      "outputs": [
        {
          "internalType": "string",
          "name": "",
          "type": "string"
        }
      ],
      "stateMutability": "view",
      "type": "function"
    },
    {
      "inputs": [
        {
          "internalType": "uint256",
          "name": "tokenId",
          "type": "uint256"
        }
      ],
      "name": "getApproved",
      "outputs": [
        {
          "internalType": "address",
          "name": "",
          "type": "address"
        }
      ],
      "stateMutability": "view",
      "type": "function"
    },
    {
      "inputs": [
        {
          "internalType": "address",
          "name": "owner",
          "type": "address"
        },
        {
          "internalType": "address",
          "name": "operator",
          "type": "address"
        }
      ],
      "name": "isApprovedForAll",
      "outputs": [
        {
          "internalType": "bool",
          "name": "",
          "type": "bool"
        }
      ],
      "stateMutability": "view",
      "type": "function"
    },
    {
      "inputs": [],
      "name": "name",
      "outputs": [
        {
          "internalType": "string",
          "name": "",
          "type": "string"
        }
      ],
      "stateMutability": "view",
      "type": "function"
    },
    {
      "inputs": [
        {
          "internalType": "uint256",
          "name": "tokenId",
          "type": "uint256"
        }
      ],
      "name": "ownerOf",
      "outputs": [
        {
          "internalType": "address",
          "name": "",
          "type": "address"
        }
      ],
      "stateMutability": "view",
      "type": "function"
    },
    {
      "inputs": [
        {
          "internalType": "address",
          "name": "from",
          "type": "address"
        },
        {
          "internalType": "address",
          "name": "to",
          "type": "address"
        },
        {
          "internalType": "uint256",
          "name": "tokenId",
          "type": "uint256"
        }
      ],
      "name": "safeTransferFrom",
      "outputs": [],
      "stateMutability": "nonpayable",
      "type": "function"
    },
    {
      "inputs": [
        {
          "internalType": "address",
          "name": "from",
          "type": "address"
        },
        {
          "internalType": "address",
          "name": "to",
          "type": "address"
        },
        {
          "internalType": "uint256",
          "name": "tokenId",
          "type": "uint256"
        },
        {
          "internalType": "bytes",
          "name": "data",
          "type": "bytes"
        }
      ],
      "name": "safeTransferFrom",
      "outputs": [],
      "stateMutability": "nonpayable",
      "type": "function"
    },
    {
      "inputs": [
        {
          "internalType": "address",
          "name": "operator",
          "type": "address"
        },
        {
          "internalType": "bool",
          "name": "approved",
          "type": "bool"
        }
      ],
      "name": "setApprovalForAll",
      "outputs": [],
      "stateMutability": "nonpayable",
      "type": "function"
    },
    {
      "inputs": [],
      "name": "symbol",
      "outputs": [
        {
          "internalType": "string",
          "name": "",
          "type": "string"
        }
      ],
      "stateMutability": "view",
      "type": "function"
    },
    {
      "inputs": [
        {
          "internalType": "uint256",
          "name": "index",
          "type": "uint256"
        }
      ],
      "name": "tokenByIndex",
      "outputs": [
        {
          "internalType": "uint256",
          "name": "",
          "type": "uint256"
        }
      ],
      "stateMutability": "view",
      "type": "function"
    },
    {
      "inputs": [
        {
          "internalType": "address",
          "name": "owner",
          "type": "address"
        },
        {
          "internalType": "uint256",
          "name": "index",
          "type": "uint256"
        }
      ],
      "name": "tokenOfOwnerByIndex",
      "outputs": [
        {
          "internalType": "uint256",
          "name": "",
          "type": "uint256"
        }
      ],
      "stateMutability": "view",
      "type": "function"
    },
    {
      "inputs": [
        {
          "internalType": "uint256",
          "name": "tokenId",
          "type": "uint256"
        }
      ],
      "name": "tokenURI",
      "outputs": [
        {
          "internalType": "string",
          "name": "",
          "type": "string"
        }
      ],
      "stateMutability": "view",
      "type": "function"
    },
    {
      "inputs": [],
      "name": "totalSupply",
      "outputs": [
        {
          "internalType": "uint256",
          "name": "",
          "type": "uint256"
        }
      ],
      "stateMutability": "view",
      "type": "function"
    },
    {
      "inputs": [
        {
          "internalType": "address",
          "name": "from",
          "type": "address"
        },
        {
          "internalType": "address",
          "name": "to",
          "type": "address"
        },
        {
          "internalType": "uint256",
          "name": "tokenId",
          "type": "uint256"
        }
      ],
      "name": "transferFrom",
      "outputs": [],
      "stateMutability": "nonpayable",
      "type": "function"
    },
    {
      "inputs": [
        {
          "internalType": "string",
          "name": "_coder",
          "type": "string"
        }
      ],
      "name": "mint",
      "outputs": [],
      "stateMutability": "nonpayable",
      "type": "function"
    },
    {
      "inputs": [
        {
          "internalType": "bytes4",
          "name": "interfaceId",
          "type": "bytes4"
        }
      ],
      "name": "supportsInterface",
      "outputs": [
        {
          "internalType": "bool",
          "name": "",
          "type": "bool"
        }
      ],
      "stateMutability": "view",
      "type": "function"
    }
  ],
  "bytecode": "0x60806040523480156200001157600080fd5b506040518060400160405280600781526020017f4d696e744e4654000000000000000000000000000000000000000000000000008152506040518060400160405280600281526020017f434300000000000000000000000000000000000000000000000000000000000081525081600090816200008f919062000324565b508060019081620000a1919062000324565b5050506200040b565b600081519050919050565b7f4e487b7100000000000000000000000000000000000000000000000000000000600052604160045260246000fd5b7f4e487b7100000000000000000000000000000000000000000000000000000000600052602260045260246000fd5b600060028204905060018216806200012c57607f821691505b602082108103620001425762000141620000e4565b5b50919050565b60008190508160005260206000209050919050565b60006020601f8301049050919050565b600082821b905092915050565b600060088302620001ac7fffffffffffffffffffffffffffffffffffffffffffffffffffffffffffffffff826200016d565b620001b886836200016d565b95508019841693508086168417925050509392505050565b6000819050919050565b6000819050919050565b600062000205620001ff620001f984620001d0565b620001da565b620001d0565b9050919050565b6000819050919050565b6200022183620001e4565b6200023962000230826200020c565b8484546200017a565b825550505050565b600090565b6200025062000241565b6200025d81848462000216565b505050565b5b8181101562000285576200027960008262000246565b60018101905062000263565b5050565b601f821115620002d4576200029e8162000148565b620002a9846200015d565b81016020851015620002b9578190505b620002d1620002c8856200015d565b83018262000262565b50505b505050565b600082821c905092915050565b6000620002f960001984600802620002d9565b1980831691505092915050565b6000620003148383620002e6565b9150826002028217905092915050565b6200032f82620000aa565b67ffffffffffffffff8111156200034b576200034a620000b5565b5b62000357825462000113565b6200036482828562000289565b600060209050601f8311600181146200039c576000841562000387578287015190505b62000393858262000306565b86555062000403565b601f198416620003ac8662000148565b60005b82811015620003d657848901518255600182019150602085019450602081019050620003af565b86831015620003f65784890151620003f2601f891682620002e6565b8355505b6001600288020188555050505b505050505050565b6133d1806200041b6000396000f3fe608060405234801561001057600080fd5b50600436106101165760003560e01c80634f6ccce7116100a2578063a22cb46511610071578063a22cb46514610319578063b88d4fde14610335578063c87b56dd14610351578063d85d3d2714610381578063e985e9c51461039d57610116565b80634f6ccce71461026b5780636352211e1461029b57806370a08231146102cb57806395d89b41146102fb57610116565b806318160ddd116100e957806318160ddd146101b557806323b872dd146101d35780632f745c59146101ef57806342842e0e1461021f5780634cfa16f91461023b57610116565b806301ffc9a71461011b57806306fdde031461014b578063081812fc14610169578063095ea7b314610199575b600080fd5b610135600480360381019061013091906120a3565b6103cd565b60405161014291906120eb565b60405180910390f35b6101536103df565b6040516101609190612196565b60405180910390f35b610183600480360381019061017e91906121ee565b610471565b604051610190919061225c565b60405180910390f35b6101b360048036038101906101ae91906122a3565b6104b7565b005b6101bd6105ce565b6040516101ca91906122f2565b60405180910390f35b6101ed60048036038101906101e8919061230d565b6105db565b005b610209600480360381019061020491906122a3565b61063b565b60405161021691906122f2565b60405180910390f35b6102396004803603810190610234919061230d565b6106e0565b005b610255600480360381019061025091906121ee565b610700565b6040516102629190612196565b60405180910390f35b610285600480360381019061028091906121ee565b6107ac565b60405161029291906122f2565b60405180910390f35b6102b560048036038101906102b091906121ee565b61081d565b6040516102c2919061225c565b60405180910390f35b6102e560048036038101906102e09190612360565b6108a3565b6040516102f291906122f2565b60405180910390f35b61030361095a565b6040516103109190612196565b60405180910390f35b610333600480360381019061032e91906123b9565b6109ec565b005b61034f600480360381019061034a919061252e565b610a02565b005b61036b600480360381019061036691906121ee565b610a64565b6040516103789190612196565b60405180910390f35b61039b60048036038101906103969190612652565b610acc565b005b6103b760048036038101906103b2919061269b565b610b5c565b6040516103c491906120eb565b60405180910390f35b60006103d882610bf0565b9050919050565b6060600080546103ee9061270a565b80601f016020809104026020016040519081016040528092919081815260200182805461041a9061270a565b80156104675780601f1061043c57610100808354040283529160200191610467565b820191906000526020600020905b81548152906001019060200180831161044a57829003601f168201915b5050505050905090565b600061047c82610c6a565b6004600083815260200190815260200160002060009054906101000a900473ffffffffffffffffffffffffffffffffffffffff169050919050565b60006104c28261081d565b90508073ffffffffffffffffffffffffffffffffffffffff168373ffffffffffffffffffffffffffffffffffffffff1603610532576040517f08c379a0000000000000000000000000000000000000000000000000000000008152600401610529906127ad565b60405180910390fd5b8073ffffffffffffffffffffffffffffffffffffffff16610551610cb5565b73ffffffffffffffffffffffffffffffffffffffff161480610580575061057f8161057a610cb5565b610b5c565b5b6105bf576040517f08c379a00000000000000000000000000000000000000000000000000000000081526004016105b69061283f565b60405180910390fd5b6105c98383610cbd565b505050565b6000600880549050905090565b6105ec6105e6610cb5565b82610d76565b61062b576040517f08c379a0000000000000000000000000000000000000000000000000000000008152600401610622906128d1565b60405180910390fd5b610636838383610e0b565b505050565b6000610646836108a3565b8210610687576040517f08c379a000000000000000000000000000000000000000000000000000000000815260040161067e90612963565b60405180910390fd5b600660008473ffffffffffffffffffffffffffffffffffffffff1673ffffffffffffffffffffffffffffffffffffffff168152602001908152602001600020600083815260200190815260200160002054905092915050565b6106fb83838360405180602001604052806000815250610a02565b505050565b600a818154811061071057600080fd5b90600052602060002001600091509050805461072b9061270a565b80601f01602080910402602001604051908101604052809291908181526020018280546107579061270a565b80156107a45780601f10610779576101008083540402835291602001916107a4565b820191906000526020600020905b81548152906001019060200180831161078757829003601f168201915b505050505081565b60006107b66105ce565b82106107f7576040517f08c379a00000000000000000000000000000000000000000000000000000000081526004016107ee906129f5565b60405180910390fd5b6008828154811061080b5761080a612a15565b5b90600052602060002001549050919050565b60008061082983611104565b9050600073ffffffffffffffffffffffffffffffffffffffff168173ffffffffffffffffffffffffffffffffffffffff160361089a576040517f08c379a000000000000000000000000000000000000000000000000000000000815260040161089190612a90565b60405180910390fd5b80915050919050565b60008073ffffffffffffffffffffffffffffffffffffffff168273ffffffffffffffffffffffffffffffffffffffff1603610913576040517f08c379a000000000000000000000000000000000000000000000000000000000815260040161090a90612b22565b60405180910390fd5b600360008373ffffffffffffffffffffffffffffffffffffffff1673ffffffffffffffffffffffffffffffffffffffff168152602001908152602001600020549050919050565b6060600180546109699061270a565b80601f01602080910402602001604051908101604052809291908181526020018280546109959061270a565b80156109e25780601f106109b7576101008083540402835291602001916109e2565b820191906000526020600020905b8154815290600101906020018083116109c557829003601f168201915b5050505050905090565b6109fe6109f7610cb5565b8383611141565b5050565b610a13610a0d610cb5565b83610d76565b610a52576040517f08c379a0000000000000000000000000000000000000000000000000000000008152600401610a49906128d1565b60405180910390fd5b610a5e848484846112ad565b50505050565b6060610a6f82610c6a565b6000610a79611309565b90506000815111610a995760405180602001604052806000815250610ac4565b80610aa384611320565b604051602001610ab4929190612b7e565b6040516020818303038152906040525b915050919050565b600a81908060018154018082558091505060019003906000526020600020016000909190919091509081610b009190612d4e565b5060006001600a80549050610b159190612e4f565b9050610b2133826113ee565b6001600b83604051610b339190612e83565b908152602001604051809103902060006101000a81548160ff0219169083151502179055505050565b6000600560008473ffffffffffffffffffffffffffffffffffffffff1673ffffffffffffffffffffffffffffffffffffffff16815260200190815260200160002060008373ffffffffffffffffffffffffffffffffffffffff1673ffffffffffffffffffffffffffffffffffffffff16815260200190815260200160002060009054906101000a900460ff16905092915050565b60007f780e9d63000000000000000000000000000000000000000000000000000000007bffffffffffffffffffffffffffffffffffffffffffffffffffffffff1916827bffffffffffffffffffffffffffffffffffffffffffffffffffffffff19161480610c635750610c628261160b565b5b9050919050565b610c73816116ed565b610cb2576040517f08c379a0000000000000000000000000000000000000000000000000000000008152600401610ca990612a90565b60405180910390fd5b50565b600033905090565b816004600083815260200190815260200160002060006101000a81548173ffffffffffffffffffffffffffffffffffffffff021916908373ffffffffffffffffffffffffffffffffffffffff160217905550808273ffffffffffffffffffffffffffffffffffffffff16610d308361081d565b73ffffffffffffffffffffffffffffffffffffffff167f8c5be1e5ebec7d5bd14f71427d1e84f3dd0314c0f7b2291e5b200ac8c7c3b92560405160405180910390a45050565b600080610d828361081d565b90508073ffffffffffffffffffffffffffffffffffffffff168473ffffffffffffffffffffffffffffffffffffffff161480610dc45750610dc38185610b5c565b5b80610e0257508373ffffffffffffffffffffffffffffffffffffffff16610dea84610471565b73ffffffffffffffffffffffffffffffffffffffff16145b91505092915050565b8273ffffffffffffffffffffffffffffffffffffffff16610e2b8261081d565b73ffffffffffffffffffffffffffffffffffffffff1614610e81576040517f08c379a0000000000000000000000000000000000000000000000000000000008152600401610e7890612f0c565b60405180910390fd5b600073ffffffffffffffffffffffffffffffffffffffff168273ffffffffffffffffffffffffffffffffffffffff1603610ef0576040517f08c379a0000000000000000000000000000000000000000000000000000000008152600401610ee790612f9e565b60405180910390fd5b610efd838383600161172e565b8273ffffffffffffffffffffffffffffffffffffffff16610f1d8261081d565b73ffffffffffffffffffffffffffffffffffffffff1614610f73576040517f08c379a0000000000000000000000000000000000000000000000000000000008152600401610f6a90612f0c565b60405180910390fd5b6004600082815260200190815260200160002060006101000a81549073ffffffffffffffffffffffffffffffffffffffff02191690556001600360008573ffffffffffffffffffffffffffffffffffffffff1673ffffffffffffffffffffffffffffffffffffffff168152602001908152602001600020600082825403925050819055506001600360008473ffffffffffffffffffffffffffffffffffffffff1673ffffffffffffffffffffffffffffffffffffffff16815260200190815260200160002060008282540192505081905550816002600083815260200190815260200160002060006101000a81548173ffffffffffffffffffffffffffffffffffffffff021916908373ffffffffffffffffffffffffffffffffffffffff160217905550808273ffffffffffffffffffffffffffffffffffffffff168473ffffffffffffffffffffffffffffffffffffffff167fddf252ad1be2c89b69c2b068fc378daa952ba7f163c4a11628f55a4df523b3ef60405160405180910390a46110ff8383836001611740565b505050565b60006002600083815260200190815260200160002060009054906101000a900473ffffffffffffffffffffffffffffffffffffffff169050919050565b8173ffffffffffffffffffffffffffffffffffffffff168373ffffffffffffffffffffffffffffffffffffffff16036111af576040517f08c379a00000000000000000000000000000000000000000000000000000000081526004016111a69061300a565b60405180910390fd5b80600560008573ffffffffffffffffffffffffffffffffffffffff1673ffffffffffffffffffffffffffffffffffffffff16815260200190815260200160002060008473ffffffffffffffffffffffffffffffffffffffff1673ffffffffffffffffffffffffffffffffffffffff16815260200190815260200160002060006101000a81548160ff0219169083151502179055508173ffffffffffffffffffffffffffffffffffffffff168373ffffffffffffffffffffffffffffffffffffffff167f17307eab39ab6107e8899845ad3d59bd9653f200f220920489ca2b5937696c31836040516112a091906120eb565b60405180910390a3505050565b6112b8848484610e0b565b6112c484848484611746565b611303576040517f08c379a00000000000000000000000000000000000000000000000000000000081526004016112fa9061309c565b60405180910390fd5b50505050565b606060405180602001604052806000815250905090565b60606000600161132f846118cd565b01905060008167ffffffffffffffff81111561134e5761134d612403565b5b6040519080825280601f01601f1916602001820160405280156113805781602001600182028036833780820191505090505b509050600082602001820190505b6001156113e3578080600190039150507f3031323334353637383961626364656600000000000000000000000000000000600a86061a8153600a85816113d7576113d66130bc565b5b0494506000850361138e575b819350505050919050565b600073ffffffffffffffffffffffffffffffffffffffff168273ffffffffffffffffffffffffffffffffffffffff160361145d576040517f08c379a000000000000000000000000000000000000000000000000000000000815260040161145490613137565b60405180910390fd5b611466816116ed565b156114a6576040517f08c379a000000000000000000000000000000000000000000000000000000000815260040161149d906131a3565b60405180910390fd5b6114b460008383600161172e565b6114bd816116ed565b156114fd576040517f08c379a00000000000000000000000000000000000000000000000000000000081526004016114f4906131a3565b60405180910390fd5b6001600360008473ffffffffffffffffffffffffffffffffffffffff1673ffffffffffffffffffffffffffffffffffffffff16815260200190815260200160002060008282540192505081905550816002600083815260200190815260200160002060006101000a81548173ffffffffffffffffffffffffffffffffffffffff021916908373ffffffffffffffffffffffffffffffffffffffff160217905550808273ffffffffffffffffffffffffffffffffffffffff16600073ffffffffffffffffffffffffffffffffffffffff167fddf252ad1be2c89b69c2b068fc378daa952ba7f163c4a11628f55a4df523b3ef60405160405180910390a4611607600083836001611740565b5050565b60007f80ac58cd000000000000000000000000000000000000000000000000000000007bffffffffffffffffffffffffffffffffffffffffffffffffffffffff1916827bffffffffffffffffffffffffffffffffffffffffffffffffffffffff191614806116d657507f5b5e139f000000000000000000000000000000000000000000000000000000007bffffffffffffffffffffffffffffffffffffffffffffffffffffffff1916827bffffffffffffffffffffffffffffffffffffffffffffffffffffffff1916145b806116e657506116e582611a20565b5b9050919050565b60008073ffffffffffffffffffffffffffffffffffffffff1661170f83611104565b73ffffffffffffffffffffffffffffffffffffffff1614159050919050565b61173a84848484611a8a565b50505050565b50505050565b60006117678473ffffffffffffffffffffffffffffffffffffffff16611be8565b156118c0578373ffffffffffffffffffffffffffffffffffffffff1663150b7a02611790610cb5565b8786866040518563ffffffff1660e01b81526004016117b29493929190613218565b6020604051808303816000875af19250505080156117ee57506040513d601f19601f820116820180604052508101906117eb9190613279565b60015b611870573d806000811461181e576040519150601f19603f3d011682016040523d82523d6000602084013e611823565b606091505b506000815103611868576040517f08c379a000000000000000000000000000000000000000000000000000000000815260040161185f9061309c565b60405180910390fd5b805181602001fd5b63150b7a0260e01b7bffffffffffffffffffffffffffffffffffffffffffffffffffffffff1916817bffffffffffffffffffffffffffffffffffffffffffffffffffffffff1916149150506118c5565b600190505b949350505050565b600080600090507a184f03e93ff9f4daa797ed6e38ed64bf6a1f010000000000000000831061192b577a184f03e93ff9f4daa797ed6e38ed64bf6a1f0100000000000000008381611921576119206130bc565b5b0492506040810190505b6d04ee2d6d415b85acef81000000008310611968576d04ee2d6d415b85acef8100000000838161195e5761195d6130bc565b5b0492506020810190505b662386f26fc10000831061199757662386f26fc10000838161198d5761198c6130bc565b5b0492506010810190505b6305f5e10083106119c0576305f5e10083816119b6576119b56130bc565b5b0492506008810190505b61271083106119e55761271083816119db576119da6130bc565b5b0492506004810190505b60648310611a0857606483816119fe576119fd6130bc565b5b0492506002810190505b600a8310611a17576001810190505b80915050919050565b60007f01ffc9a7000000000000000000000000000000000000000000000000000000007bffffffffffffffffffffffffffffffffffffffffffffffffffffffff1916827bffffffffffffffffffffffffffffffffffffffffffffffffffffffff1916149050919050565b611a9684848484611c0b565b6001811115611ada576040517f08c379a0000000000000000000000000000000000000000000000000000000008152600401611ad190613318565b60405180910390fd5b6000829050600073ffffffffffffffffffffffffffffffffffffffff168573ffffffffffffffffffffffffffffffffffffffff1603611b2157611b1c81611d31565b611b60565b8373ffffffffffffffffffffffffffffffffffffffff168573ffffffffffffffffffffffffffffffffffffffff1614611b5f57611b5e8582611d7a565b5b5b600073ffffffffffffffffffffffffffffffffffffffff168473ffffffffffffffffffffffffffffffffffffffff1603611ba257611b9d81611ee7565b611be1565b8473ffffffffffffffffffffffffffffffffffffffff168473ffffffffffffffffffffffffffffffffffffffff1614611be057611bdf8482611fb8565b5b5b5050505050565b6000808273ffffffffffffffffffffffffffffffffffffffff163b119050919050565b6001811115611d2b57600073ffffffffffffffffffffffffffffffffffffffff168473ffffffffffffffffffffffffffffffffffffffff1614611c9f5780600360008673ffffffffffffffffffffffffffffffffffffffff1673ffffffffffffffffffffffffffffffffffffffff1681526020019081526020016000206000828254611c979190612e4f565b925050819055505b600073ffffffffffffffffffffffffffffffffffffffff168373ffffffffffffffffffffffffffffffffffffffff1614611d2a5780600360008573ffffffffffffffffffffffffffffffffffffffff1673ffffffffffffffffffffffffffffffffffffffff1681526020019081526020016000206000828254611d229190613338565b925050819055505b5b50505050565b6008805490506009600083815260200190815260200160002081905550600881908060018154018082558091505060019003906000526020600020016000909190919091505550565b60006001611d87846108a3565b611d919190612e4f565b9050600060076000848152602001908152602001600020549050818114611e76576000600660008673ffffffffffffffffffffffffffffffffffffffff1673ffffffffffffffffffffffffffffffffffffffff168152602001908152602001600020600084815260200190815260200160002054905080600660008773ffffffffffffffffffffffffffffffffffffffff1673ffffffffffffffffffffffffffffffffffffffff168152602001908152602001600020600084815260200190815260200160002081905550816007600083815260200190815260200160002081905550505b6007600084815260200190815260200160002060009055600660008573ffffffffffffffffffffffffffffffffffffffff1673ffffffffffffffffffffffffffffffffffffffff16815260200190815260200160002060008381526020019081526020016000206000905550505050565b60006001600880549050611efb9190612e4f565b9050600060096000848152602001908152602001600020549050600060088381548110611f2b57611f2a612a15565b5b906000526020600020015490508060088381548110611f4d57611f4c612a15565b5b906000526020600020018190555081600960008381526020019081526020016000208190555060096000858152602001908152602001600020600090556008805480611f9c57611f9b61336c565b5b6001900381819060005260206000200160009055905550505050565b6000611fc3836108a3565b905081600660008573ffffffffffffffffffffffffffffffffffffffff1673ffffffffffffffffffffffffffffffffffffffff168152602001908152602001600020600083815260200190815260200160002081905550806007600084815260200190815260200160002081905550505050565b6000604051905090565b600080fd5b600080fd5b60007fffffffff0000000000000000000000000000000000000000000000000000000082169050919050565b6120808161204b565b811461208b57600080fd5b50565b60008135905061209d81612077565b92915050565b6000602082840312156120b9576120b8612041565b5b60006120c78482850161208e565b91505092915050565b60008115159050919050565b6120e5816120d0565b82525050565b600060208201905061210060008301846120dc565b92915050565b600081519050919050565b600082825260208201905092915050565b60005b83811015612140578082015181840152602081019050612125565b60008484015250505050565b6000601f19601f8301169050919050565b600061216882612106565b6121728185612111565b9350612182818560208601612122565b61218b8161214c565b840191505092915050565b600060208201905081810360008301526121b0818461215d565b905092915050565b6000819050919050565b6121cb816121b8565b81146121d657600080fd5b50565b6000813590506121e8816121c2565b92915050565b60006020828403121561220457612203612041565b5b6000612212848285016121d9565b91505092915050565b600073ffffffffffffffffffffffffffffffffffffffff82169050919050565b60006122468261221b565b9050919050565b6122568161223b565b82525050565b6000602082019050612271600083018461224d565b92915050565b6122808161223b565b811461228b57600080fd5b50565b60008135905061229d81612277565b92915050565b600080604083850312156122ba576122b9612041565b5b60006122c88582860161228e565b92505060206122d9858286016121d9565b9150509250929050565b6122ec816121b8565b82525050565b600060208201905061230760008301846122e3565b92915050565b60008060006060848603121561232657612325612041565b5b60006123348682870161228e565b93505060206123458682870161228e565b9250506040612356868287016121d9565b9150509250925092565b60006020828403121561237657612375612041565b5b60006123848482850161228e565b91505092915050565b612396816120d0565b81146123a157600080fd5b50565b6000813590506123b38161238d565b92915050565b600080604083850312156123d0576123cf612041565b5b60006123de8582860161228e565b92505060206123ef858286016123a4565b9150509250929050565b600080fd5b600080fd5b7f4e487b7100000000000000000000000000000000000000000000000000000000600052604160045260246000fd5b61243b8261214c565b810181811067ffffffffffffffff8211171561245a57612459612403565b5b80604052505050565b600061246d612037565b90506124798282612432565b919050565b600067ffffffffffffffff82111561249957612498612403565b5b6124a28261214c565b9050602081019050919050565b82818337600083830152505050565b60006124d16124cc8461247e565b612463565b9050828152602081018484840111156124ed576124ec6123fe565b5b6124f88482856124af565b509392505050565b600082601f830112612515576125146123f9565b5b81356125258482602086016124be565b91505092915050565b6000806000806080858703121561254857612547612041565b5b60006125568782880161228e565b94505060206125678782880161228e565b9350506040612578878288016121d9565b925050606085013567ffffffffffffffff81111561259957612598612046565b5b6125a587828801612500565b91505092959194509250565b600067ffffffffffffffff8211156125cc576125cb612403565b5b6125d58261214c565b9050602081019050919050565b60006125f56125f0846125b1565b612463565b905082815260208101848484011115612611576126106123fe565b5b61261c8482856124af565b509392505050565b600082601f830112612639576126386123f9565b5b81356126498482602086016125e2565b91505092915050565b60006020828403121561266857612667612041565b5b600082013567ffffffffffffffff81111561268657612685612046565b5b61269284828501612624565b91505092915050565b600080604083850312156126b2576126b1612041565b5b60006126c08582860161228e565b92505060206126d18582860161228e565b9150509250929050565b7f4e487b7100000000000000000000000000000000000000000000000000000000600052602260045260246000fd5b6000600282049050600182168061272257607f821691505b602082108103612735576127346126db565b5b50919050565b7f4552433732313a20617070726f76616c20746f2063757272656e74206f776e6560008201527f7200000000000000000000000000000000000000000000000000000000000000602082015250565b6000612797602183612111565b91506127a28261273b565b604082019050919050565b600060208201905081810360008301526127c68161278a565b9050919050565b7f4552433732313a20617070726f76652063616c6c6572206973206e6f7420746f60008201527f6b656e206f776e6572206f7220617070726f76656420666f7220616c6c000000602082015250565b6000612829603d83612111565b9150612834826127cd565b604082019050919050565b600060208201905081810360008301526128588161281c565b9050919050565b7f4552433732313a2063616c6c6572206973206e6f7420746f6b656e206f776e6560008201527f72206f7220617070726f76656400000000000000000000000000000000000000602082015250565b60006128bb602d83612111565b91506128c68261285f565b604082019050919050565b600060208201905081810360008301526128ea816128ae565b9050919050565b7f455243373231456e756d657261626c653a206f776e657220696e646578206f7560008201527f74206f6620626f756e6473000000000000000000000000000000000000000000602082015250565b600061294d602b83612111565b9150612958826128f1565b604082019050919050565b6000602082019050818103600083015261297c81612940565b9050919050565b7f455243373231456e756d657261626c653a20676c6f62616c20696e646578206f60008201527f7574206f6620626f756e64730000000000000000000000000000000000000000602082015250565b60006129df602c83612111565b91506129ea82612983565b604082019050919050565b60006020820190508181036000830152612a0e816129d2565b9050919050565b7f4e487b7100000000000000000000000000000000000000000000000000000000600052603260045260246000fd5b7f4552433732313a20696e76616c696420746f6b656e2049440000000000000000600082015250565b6000612a7a601883612111565b9150612a8582612a44565b602082019050919050565b60006020820190508181036000830152612aa981612a6d565b9050919050565b7f4552433732313a2061646472657373207a65726f206973206e6f74206120766160008201527f6c6964206f776e65720000000000000000000000000000000000000000000000602082015250565b6000612b0c602983612111565b9150612b1782612ab0565b604082019050919050565b60006020820190508181036000830152612b3b81612aff565b9050919050565b600081905092915050565b6000612b5882612106565b612b628185612b42565b9350612b72818560208601612122565b80840191505092915050565b6000612b8a8285612b4d565b9150612b968284612b4d565b91508190509392505050565b60008190508160005260206000209050919050565b60006020601f8301049050919050565b600082821b905092915050565b600060088302612c047fffffffffffffffffffffffffffffffffffffffffffffffffffffffffffffffff82612bc7565b612c0e8683612bc7565b95508019841693508086168417925050509392505050565b6000819050919050565b6000612c4b612c46612c41846121b8565b612c26565b6121b8565b9050919050565b6000819050919050565b612c6583612c30565b612c79612c7182612c52565b848454612bd4565b825550505050565b600090565b612c8e612c81565b612c99818484612c5c565b505050565b5b81811015612cbd57612cb2600082612c86565b600181019050612c9f565b5050565b601f821115612d0257612cd381612ba2565b612cdc84612bb7565b81016020851015612ceb578190505b612cff612cf785612bb7565b830182612c9e565b50505b505050565b600082821c905092915050565b6000612d2560001984600802612d07565b1980831691505092915050565b6000612d3e8383612d14565b9150826002028217905092915050565b612d5782612106565b67ffffffffffffffff811115612d7057612d6f612403565b5b612d7a825461270a565b612d85828285612cc1565b600060209050601f831160018114612db85760008415612da6578287015190505b612db08582612d32565b865550612e18565b601f198416612dc686612ba2565b60005b82811015612dee57848901518255600182019150602085019450602081019050612dc9565b86831015612e0b5784890151612e07601f891682612d14565b8355505b6001600288020188555050505b505050505050565b7f4e487b7100000000000000000000000000000000000000000000000000000000600052601160045260246000fd5b6000612e5a826121b8565b9150612e65836121b8565b9250828203905081811115612e7d57612e7c612e20565b5b92915050565b6000612e8f8284612b4d565b915081905092915050565b7f4552433732313a207472616e736665722066726f6d20696e636f72726563742060008201527f6f776e6572000000000000000000000000000000000000000000000000000000602082015250565b6000612ef6602583612111565b9150612f0182612e9a565b604082019050919050565b60006020820190508181036000830152612f2581612ee9565b9050919050565b7f4552433732313a207472616e7366657220746f20746865207a65726f2061646460008201527f7265737300000000000000000000000000000000000000000000000000000000602082015250565b6000612f88602483612111565b9150612f9382612f2c565b604082019050919050565b60006020820190508181036000830152612fb781612f7b565b9050919050565b7f4552433732313a20617070726f766520746f2063616c6c657200000000000000600082015250565b6000612ff4601983612111565b9150612fff82612fbe565b602082019050919050565b6000602082019050818103600083015261302381612fe7565b9050919050565b7f4552433732313a207472616e7366657220746f206e6f6e20455243373231526560008201527f63656976657220696d706c656d656e7465720000000000000000000000000000602082015250565b6000613086603283612111565b91506130918261302a565b604082019050919050565b600060208201905081810360008301526130b581613079565b9050919050565b7f4e487b7100000000000000000000000000000000000000000000000000000000600052601260045260246000fd5b7f4552433732313a206d696e7420746f20746865207a65726f2061646472657373600082015250565b6000613121602083612111565b915061312c826130eb565b602082019050919050565b6000602082019050818103600083015261315081613114565b9050919050565b7f4552433732313a20746f6b656e20616c7265616479206d696e74656400000000600082015250565b600061318d601c83612111565b915061319882613157565b602082019050919050565b600060208201905081810360008301526131bc81613180565b9050919050565b600081519050919050565b600082825260208201905092915050565b60006131ea826131c3565b6131f481856131ce565b9350613204818560208601612122565b61320d8161214c565b840191505092915050565b600060808201905061322d600083018761224d565b61323a602083018661224d565b61324760408301856122e3565b818103606083015261325981846131df565b905095945050505050565b60008151905061327381612077565b92915050565b60006020828403121561328f5761328e612041565b5b600061329d84828501613264565b91505092915050565b7f455243373231456e756d657261626c653a20636f6e736563757469766520747260008201527f616e7366657273206e6f7420737570706f727465640000000000000000000000602082015250565b6000613302603583612111565b915061330d826132a6565b604082019050919050565b60006020820190508181036000830152613331816132f5565b9050919050565b6000613343826121b8565b915061334e836121b8565b925082820190508082111561336657613365612e20565b5b92915050565b7f4e487b7100000000000000000000000000000000000000000000000000000000600052603160045260246000fdfea2646970667358221220bc9bf5d7a7095ec2f49344c3bddddadb216c8068fd4a4379f90f8a171f39540b64736f6c63430008110033",
  "immutableReferences": {},
  "source": "// SPDX-License-Identifier: MIT\npragma solidity ^0.8.0;\n\nimport \"../node_modules/@openzeppelin/contracts/token/ERC721/ERC721.sol\";\nimport \"../node_modules/@openzeppelin/contracts/token/ERC721/extensions/ERC721Enumerable.sol\";\n\ncontract MintNFT is ERC721, ERC721Enumerable {\n\n    string[] public coders;\n    mapping(string => bool) _coderExists;\n\n    constructor() ERC721(\"MintNFT\", \"CC\") {\n    }\n\n    function mint(string memory _coder)  public {\n        coders.push(_coder);\n        uint _id = coders.length - 1;\n        _mint(msg.sender, _id);\n        _coderExists[_coder] = true;\n    }\n\nfunction _beforeTokenTransfer(address from, address to, uint256 tokenId,uint256 batchSize)\n        internal override(ERC721, ERC721Enumerable)\n    {\n        super._beforeTokenTransfer(from, to, tokenId,batchSize);\n    }\n\n\n    function supportsInterface(bytes4 interfaceId) public view\n        override(ERC721, ERC721Enumerable)\n        returns (bool)\n    {\n        return super.supportsInterface(interfaceId);\n    }\n}\n",
  "sourcePath": "C:\\0000\\Dev\\Blockchain\\Project2\\contracts\\MintNFT.sol",
  "compiler": {
    "name": "solc",
    "version": "0.8.17+commit.8df45f5f.Emscripten.clang"
  },
  "schemaVersion": "3.4.10",
  "updatedAt": "2022-11-21T06:33:28.302Z",
  "devdoc": {
    "kind": "dev",
    "methods": {
      "approve(address,uint256)": {
        "details": "See {IERC721-approve}."
      },
      "balanceOf(address)": {
        "details": "See {IERC721-balanceOf}."
      },
      "getApproved(uint256)": {
        "details": "See {IERC721-getApproved}."
      },
      "isApprovedForAll(address,address)": {
        "details": "See {IERC721-isApprovedForAll}."
      },
      "name()": {
        "details": "See {IERC721Metadata-name}."
      },
      "ownerOf(uint256)": {
        "details": "See {IERC721-ownerOf}."
      },
      "safeTransferFrom(address,address,uint256)": {
        "details": "See {IERC721-safeTransferFrom}."
      },
      "safeTransferFrom(address,address,uint256,bytes)": {
        "details": "See {IERC721-safeTransferFrom}."
      },
      "setApprovalForAll(address,bool)": {
        "details": "See {IERC721-setApprovalForAll}."
      },
      "symbol()": {
        "details": "See {IERC721Metadata-symbol}."
      },
      "tokenByIndex(uint256)": {
        "details": "See {IERC721Enumerable-tokenByIndex}."
      },
      "tokenOfOwnerByIndex(address,uint256)": {
        "details": "See {IERC721Enumerable-tokenOfOwnerByIndex}."
      },
      "tokenURI(uint256)": {
        "details": "See {IERC721Metadata-tokenURI}."
      },
      "totalSupply()": {
        "details": "See {IERC721Enumerable-totalSupply}."
      },
      "transferFrom(address,address,uint256)": {
        "details": "See {IERC721-transferFrom}."
      }
    },
    "version": 1
  },
  "userdoc": {
    "kind": "user",
    "methods": {},
    "version": 1
  }
}