{
  "contractName": "MintNFT",
  "abi": [
    {
      "inputs": [],
      "stateMutability": "nonpayable",
      "type": "constructor"
    },
    {
      "anonymous": false,
      "inputs": [
        {
          "indexed": true,
          "internalType": "address",
          "name": "owner",
          "type": "address"
        },
        {
          "indexed": true,
          "internalType": "address",
          "name": "approved",
          "type": "address"
        },
        {
          "indexed": true,
          "internalType": "uint256",
          "name": "tokenId",
          "type": "uint256"
        }
      ],
      "name": "Approval",
      "type": "event"
    },
    {
      "anonymous": false,
      "inputs": [
        {
          "indexed": true,
          "internalType": "address",
          "name": "owner",
          "type": "address"
        },
        {
          "indexed": true,
          "internalType": "address",
          "name": "operator",
          "type": "address"
        },
        {
          "indexed": false,
          "internalType": "bool",
          "name": "approved",
          "type": "bool"
        }
      ],
      "name": "ApprovalForAll",
      "type": "event"
    },
    {
      "anonymous": false,
      "inputs": [
        {
          "indexed": true,
          "internalType": "address",
          "name": "from",
          "type": "address"
        },
        {
          "indexed": true,
          "internalType": "address",
          "name": "to",
          "type": "address"
        },
        {
          "indexed": true,
          "internalType": "uint256",
          "name": "tokenId",
          "type": "uint256"
        }
      ],
      "name": "Transfer",
      "type": "event"
    },
    {
      "inputs": [
        {
          "internalType": "address",
          "name": "to",
          "type": "address"
        },
        {
          "internalType": "uint256",
          "name": "tokenId",
          "type": "uint256"
        }
      ],
      "name": "approve",
      "outputs": [],
      "stateMutability": "nonpayable",
      "type": "function"
    },
    {
      "inputs": [
        {
          "internalType": "address",
          "name": "owner",
          "type": "address"
        }
      ],
      "name": "balanceOf",
      "outputs": [
        {
          "internalType": "uint256",
          "name": "",
          "type": "uint256"
        }
      ],
      "stateMutability": "view",
      "type": "function"
    },
    {
      "inputs": [
        {
          "internalType": "uint256",
          "name": "",
          "type": "uint256"
        }
      ],
      "name": "coders",
      "outputs": [
        {
          "internalType": "string",
          "name": "",
          "type": "string"
        }
      ],
      "stateMutability": "view",
      "type": "function"
    },
    {
      "inputs": [
        {
          "internalType": "uint256",
          "name": "tokenId",
          "type": "uint256"
        }
      ],
      "name": "getApproved",
      "outputs": [
        {
          "internalType": "address",
          "name": "",
          "type": "address"
        }
      ],
      "stateMutability": "view",
      "type": "function"
    },
    {
      "inputs": [
        {
          "internalType": "address",
          "name": "owner",
          "type": "address"
        },
        {
          "internalType": "address",
          "name": "operator",
          "type": "address"
        }
      ],
      "name": "isApprovedForAll",
      "outputs": [
        {
          "internalType": "bool",
          "name": "",
          "type": "bool"
        }
      ],
      "stateMutability": "view",
      "type": "function"
    },
    {
      "inputs": [],
      "name": "name",
      "outputs": [
        {
          "internalType": "string",
          "name": "",
          "type": "string"
        }
      ],
      "stateMutability": "view",
      "type": "function"
    },
    {
      "inputs": [
        {
          "internalType": "uint256",
          "name": "tokenId",
          "type": "uint256"
        }
      ],
      "name": "ownerOf",
      "outputs": [
        {
          "internalType": "address",
          "name": "",
          "type": "address"
        }
      ],
      "stateMutability": "view",
      "type": "function"
    },
    {
      "inputs": [
        {
          "internalType": "address",
          "name": "from",
          "type": "address"
        },
        {
          "internalType": "address",
          "name": "to",
          "type": "address"
        },
        {
          "internalType": "uint256",
          "name": "tokenId",
          "type": "uint256"
        }
      ],
      "name": "safeTransferFrom",
      "outputs": [],
      "stateMutability": "nonpayable",
      "type": "function"
    },
    {
      "inputs": [
        {
          "internalType": "address",
          "name": "from",
          "type": "address"
        },
        {
          "internalType": "address",
          "name": "to",
          "type": "address"
        },
        {
          "internalType": "uint256",
          "name": "tokenId",
          "type": "uint256"
        },
        {
          "internalType": "bytes",
          "name": "data",
          "type": "bytes"
        }
      ],
      "name": "safeTransferFrom",
      "outputs": [],
      "stateMutability": "nonpayable",
      "type": "function"
    },
    {
      "inputs": [
        {
          "internalType": "address",
          "name": "operator",
          "type": "address"
        },
        {
          "internalType": "bool",
          "name": "approved",
          "type": "bool"
        }
      ],
      "name": "setApprovalForAll",
      "outputs": [],
      "stateMutability": "nonpayable",
      "type": "function"
    },
    {
      "inputs": [],
      "name": "symbol",
      "outputs": [
        {
          "internalType": "string",
          "name": "",
          "type": "string"
        }
      ],
      "stateMutability": "view",
      "type": "function"
    },
    {
      "inputs": [
        {
          "internalType": "uint256",
          "name": "index",
          "type": "uint256"
        }
      ],
      "name": "tokenByIndex",
      "outputs": [
        {
          "internalType": "uint256",
          "name": "",
          "type": "uint256"
        }
      ],
      "stateMutability": "view",
      "type": "function"
    },
    {
      "inputs": [
        {
          "internalType": "address",
          "name": "owner",
          "type": "address"
        },
        {
          "internalType": "uint256",
          "name": "index",
          "type": "uint256"
        }
      ],
      "name": "tokenOfOwnerByIndex",
      "outputs": [
        {
          "internalType": "uint256",
          "name": "",
          "type": "uint256"
        }
      ],
      "stateMutability": "view",
      "type": "function"
    },
    {
      "inputs": [
        {
          "internalType": "uint256",
          "name": "tokenId",
          "type": "uint256"
        }
      ],
      "name": "tokenURI",
      "outputs": [
        {
          "internalType": "string",
          "name": "",
          "type": "string"
        }
      ],
      "stateMutability": "view",
      "type": "function"
    },
    {
      "inputs": [],
      "name": "totalSupply",
      "outputs": [
        {
          "internalType": "uint256",
          "name": "",
          "type": "uint256"
        }
      ],
      "stateMutability": "view",
      "type": "function"
    },
    {
      "inputs": [
        {
          "internalType": "address",
          "name": "from",
          "type": "address"
        },
        {
          "internalType": "address",
          "name": "to",
          "type": "address"
        },
        {
          "internalType": "uint256",
          "name": "tokenId",
          "type": "uint256"
        }
      ],
      "name": "transferFrom",
      "outputs": [],
      "stateMutability": "nonpayable",
      "type": "function"
    },
    {
      "inputs": [
        {
          "internalType": "string",
          "name": "_coder",
          "type": "string"
        }
      ],
      "name": "mint",
      "outputs": [],
      "stateMutability": "nonpayable",
      "type": "function"
    },
    {
      "inputs": [
        {
          "internalType": "bytes4",
          "name": "interfaceId",
          "type": "bytes4"
        }
      ],
      "name": "supportsInterface",
      "outputs": [
        {
          "internalType": "bool",
          "name": "",
          "type": "bool"
        }
      ],
      "stateMutability": "view",
      "type": "function"
    }
  ],
  "bytecode": "0x60806040523480156200001157600080fd5b506040518060400160405280600781526020017f4d696e744e4654000000000000000000000000000000000000000000000000008152506040518060400160405280600281526020017f434300000000000000000000000000000000000000000000000000000000000081525081600090816200008f919062000324565b508060019081620000a1919062000324565b5050506200040b565b600081519050919050565b7f4e487b7100000000000000000000000000000000000000000000000000000000600052604160045260246000fd5b7f4e487b7100000000000000000000000000000000000000000000000000000000600052602260045260246000fd5b600060028204905060018216806200012c57607f821691505b602082108103620001425762000141620000e4565b5b50919050565b60008190508160005260206000209050919050565b60006020601f8301049050919050565b600082821b905092915050565b600060088302620001ac7fffffffffffffffffffffffffffffffffffffffffffffffffffffffffffffffff826200016d565b620001b886836200016d565b95508019841693508086168417925050509392505050565b6000819050919050565b6000819050919050565b600062000205620001ff620001f984620001d0565b620001da565b620001d0565b9050919050565b6000819050919050565b6200022183620001e4565b6200023962000230826200020c565b8484546200017a565b825550505050565b600090565b6200025062000241565b6200025d81848462000216565b505050565b5b8181101562000285576200027960008262000246565b60018101905062000263565b5050565b601f821115620002d4576200029e8162000148565b620002a9846200015d565b81016020851015620002b9578190505b620002d1620002c8856200015d565b83018262000262565b50505b505050565b600082821c905092915050565b6000620002f960001984600802620002d9565b1980831691505092915050565b6000620003148383620002e6565b9150826002028217905092915050565b6200032f82620000aa565b67ffffffffffffffff8111156200034b576200034a620000b5565b5b62000357825462000113565b6200036482828562000289565b600060209050601f8311600181146200039c576000841562000387578287015190505b62000393858262000306565b86555062000403565b601f198416620003ac8662000148565b60005b82811015620003d657848901518255600182019150602085019450602081019050620003af565b86831015620003f65784890151620003f2601f891682620002e6565b8355505b6001600288020188555050505b505050505050565b613407806200041b6000396000f3fe608060405234801561001057600080fd5b50600436106101165760003560e01c80634f6ccce7116100a2578063a22cb46511610071578063a22cb46514610319578063b88d4fde14610335578063c87b56dd14610351578063d85d3d2714610381578063e985e9c51461039d57610116565b80634f6ccce71461026b5780636352211e1461029b57806370a08231146102cb57806395d89b41146102fb57610116565b806318160ddd116100e957806318160ddd146101b557806323b872dd146101d35780632f745c59146101ef57806342842e0e1461021f5780634cfa16f91461023b57610116565b806301ffc9a71461011b57806306fdde031461014b578063081812fc14610169578063095ea7b314610199575b600080fd5b610135600480360381019061013091906120d9565b6103cd565b6040516101429190612121565b60405180910390f35b6101536103df565b60405161016091906121cc565b60405180910390f35b610183600480360381019061017e9190612224565b610471565b6040516101909190612292565b60405180910390f35b6101b360048036038101906101ae91906122d9565b6104b7565b005b6101bd6105ce565b6040516101ca9190612328565b60405180910390f35b6101ed60048036038101906101e89190612343565b6105db565b005b610209600480360381019061020491906122d9565b61063b565b6040516102169190612328565b60405180910390f35b61023960048036038101906102349190612343565b6106e0565b005b61025560048036038101906102509190612224565b610700565b60405161026291906121cc565b60405180910390f35b61028560048036038101906102809190612224565b6107ac565b6040516102929190612328565b60405180910390f35b6102b560048036038101906102b09190612224565b61081d565b6040516102c29190612292565b60405180910390f35b6102e560048036038101906102e09190612396565b6108a3565b6040516102f29190612328565b60405180910390f35b61030361095a565b60405161031091906121cc565b60405180910390f35b610333600480360381019061032e91906123ef565b6109ec565b005b61034f600480360381019061034a9190612564565b610a02565b005b61036b60048036038101906103669190612224565b610a64565b60405161037891906121cc565b60405180910390f35b61039b60048036038101906103969190612688565b610acc565b005b6103b760048036038101906103b291906126d1565b610b92565b6040516103c49190612121565b60405180910390f35b60006103d882610c26565b9050919050565b6060600080546103ee90612740565b80601f016020809104026020016040519081016040528092919081815260200182805461041a90612740565b80156104675780601f1061043c57610100808354040283529160200191610467565b820191906000526020600020905b81548152906001019060200180831161044a57829003601f168201915b5050505050905090565b600061047c82610ca0565b6004600083815260200190815260200160002060009054906101000a900473ffffffffffffffffffffffffffffffffffffffff169050919050565b60006104c28261081d565b90508073ffffffffffffffffffffffffffffffffffffffff168373ffffffffffffffffffffffffffffffffffffffff1603610532576040517f08c379a0000000000000000000000000000000000000000000000000000000008152600401610529906127e3565b60405180910390fd5b8073ffffffffffffffffffffffffffffffffffffffff16610551610ceb565b73ffffffffffffffffffffffffffffffffffffffff161480610580575061057f8161057a610ceb565b610b92565b5b6105bf576040517f08c379a00000000000000000000000000000000000000000000000000000000081526004016105b690612875565b60405180910390fd5b6105c98383610cf3565b505050565b6000600880549050905090565b6105ec6105e6610ceb565b82610dac565b61062b576040517f08c379a000000000000000000000000000000000000000000000000000000000815260040161062290612907565b60405180910390fd5b610636838383610e41565b505050565b6000610646836108a3565b8210610687576040517f08c379a000000000000000000000000000000000000000000000000000000000815260040161067e90612999565b60405180910390fd5b600660008473ffffffffffffffffffffffffffffffffffffffff1673ffffffffffffffffffffffffffffffffffffffff168152602001908152602001600020600083815260200190815260200160002054905092915050565b6106fb83838360405180602001604052806000815250610a02565b505050565b600a818154811061071057600080fd5b90600052602060002001600091509050805461072b90612740565b80601f016020809104026020016040519081016040528092919081815260200182805461075790612740565b80156107a45780601f10610779576101008083540402835291602001916107a4565b820191906000526020600020905b81548152906001019060200180831161078757829003601f168201915b505050505081565b60006107b66105ce565b82106107f7576040517f08c379a00000000000000000000000000000000000000000000000000000000081526004016107ee90612a2b565b60405180910390fd5b6008828154811061080b5761080a612a4b565b5b90600052602060002001549050919050565b6000806108298361113a565b9050600073ffffffffffffffffffffffffffffffffffffffff168173ffffffffffffffffffffffffffffffffffffffff160361089a576040517f08c379a000000000000000000000000000000000000000000000000000000000815260040161089190612ac6565b60405180910390fd5b80915050919050565b60008073ffffffffffffffffffffffffffffffffffffffff168273ffffffffffffffffffffffffffffffffffffffff1603610913576040517f08c379a000000000000000000000000000000000000000000000000000000000815260040161090a90612b58565b60405180910390fd5b600360008373ffffffffffffffffffffffffffffffffffffffff1673ffffffffffffffffffffffffffffffffffffffff168152602001908152602001600020549050919050565b60606001805461096990612740565b80601f016020809104026020016040519081016040528092919081815260200182805461099590612740565b80156109e25780601f106109b7576101008083540402835291602001916109e2565b820191906000526020600020905b8154815290600101906020018083116109c557829003601f168201915b5050505050905090565b6109fe6109f7610ceb565b8383611177565b5050565b610a13610a0d610ceb565b83610dac565b610a52576040517f08c379a0000000000000000000000000000000000000000000000000000000008152600401610a4990612907565b60405180910390fd5b610a5e848484846112e3565b50505050565b6060610a6f82610ca0565b6000610a7961133f565b90506000815111610a995760405180602001604052806000815250610ac4565b80610aa384611356565b604051602001610ab4929190612bb4565b6040516020818303038152906040525b915050919050565b600b81604051610adc9190612bd8565b908152602001604051809103902060009054906101000a900460ff1615610b0257600080fd5b600a81908060018154018082558091505060019003906000526020600020016000909190919091509081610b369190612d9b565b5060006001600a80549050610b4b9190612e9c565b9050610b573382611424565b6001600b83604051610b699190612bd8565b908152602001604051809103902060006101000a81548160ff0219169083151502179055505050565b6000600560008473ffffffffffffffffffffffffffffffffffffffff1673ffffffffffffffffffffffffffffffffffffffff16815260200190815260200160002060008373ffffffffffffffffffffffffffffffffffffffff1673ffffffffffffffffffffffffffffffffffffffff16815260200190815260200160002060009054906101000a900460ff16905092915050565b60007f780e9d63000000000000000000000000000000000000000000000000000000007bffffffffffffffffffffffffffffffffffffffffffffffffffffffff1916827bffffffffffffffffffffffffffffffffffffffffffffffffffffffff19161480610c995750610c9882611641565b5b9050919050565b610ca981611723565b610ce8576040517f08c379a0000000000000000000000000000000000000000000000000000000008152600401610cdf90612ac6565b60405180910390fd5b50565b600033905090565b816004600083815260200190815260200160002060006101000a81548173ffffffffffffffffffffffffffffffffffffffff021916908373ffffffffffffffffffffffffffffffffffffffff160217905550808273ffffffffffffffffffffffffffffffffffffffff16610d668361081d565b73ffffffffffffffffffffffffffffffffffffffff167f8c5be1e5ebec7d5bd14f71427d1e84f3dd0314c0f7b2291e5b200ac8c7c3b92560405160405180910390a45050565b600080610db88361081d565b90508073ffffffffffffffffffffffffffffffffffffffff168473ffffffffffffffffffffffffffffffffffffffff161480610dfa5750610df98185610b92565b5b80610e3857508373ffffffffffffffffffffffffffffffffffffffff16610e2084610471565b73ffffffffffffffffffffffffffffffffffffffff16145b91505092915050565b8273ffffffffffffffffffffffffffffffffffffffff16610e618261081d565b73ffffffffffffffffffffffffffffffffffffffff1614610eb7576040517f08c379a0000000000000000000000000000000000000000000000000000000008152600401610eae90612f42565b60405180910390fd5b600073ffffffffffffffffffffffffffffffffffffffff168273ffffffffffffffffffffffffffffffffffffffff1603610f26576040517f08c379a0000000000000000000000000000000000000000000000000000000008152600401610f1d90612fd4565b60405180910390fd5b610f338383836001611764565b8273ffffffffffffffffffffffffffffffffffffffff16610f538261081d565b73ffffffffffffffffffffffffffffffffffffffff1614610fa9576040517f08c379a0000000000000000000000000000000000000000000000000000000008152600401610fa090612f42565b60405180910390fd5b6004600082815260200190815260200160002060006101000a81549073ffffffffffffffffffffffffffffffffffffffff02191690556001600360008573ffffffffffffffffffffffffffffffffffffffff1673ffffffffffffffffffffffffffffffffffffffff168152602001908152602001600020600082825403925050819055506001600360008473ffffffffffffffffffffffffffffffffffffffff1673ffffffffffffffffffffffffffffffffffffffff16815260200190815260200160002060008282540192505081905550816002600083815260200190815260200160002060006101000a81548173ffffffffffffffffffffffffffffffffffffffff021916908373ffffffffffffffffffffffffffffffffffffffff160217905550808273ffffffffffffffffffffffffffffffffffffffff168473ffffffffffffffffffffffffffffffffffffffff167fddf252ad1be2c89b69c2b068fc378daa952ba7f163c4a11628f55a4df523b3ef60405160405180910390a46111358383836001611776565b505050565b60006002600083815260200190815260200160002060009054906101000a900473ffffffffffffffffffffffffffffffffffffffff169050919050565b8173ffffffffffffffffffffffffffffffffffffffff168373ffffffffffffffffffffffffffffffffffffffff16036111e5576040517f08c379a00000000000000000000000000000000000000000000000000000000081526004016111dc90613040565b60405180910390fd5b80600560008573ffffffffffffffffffffffffffffffffffffffff1673ffffffffffffffffffffffffffffffffffffffff16815260200190815260200160002060008473ffffffffffffffffffffffffffffffffffffffff1673ffffffffffffffffffffffffffffffffffffffff16815260200190815260200160002060006101000a81548160ff0219169083151502179055508173ffffffffffffffffffffffffffffffffffffffff168373ffffffffffffffffffffffffffffffffffffffff167f17307eab39ab6107e8899845ad3d59bd9653f200f220920489ca2b5937696c31836040516112d69190612121565b60405180910390a3505050565b6112ee848484610e41565b6112fa8484848461177c565b611339576040517f08c379a0000000000000000000000000000000000000000000000000000000008152600401611330906130d2565b60405180910390fd5b50505050565b606060405180602001604052806000815250905090565b60606000600161136584611903565b01905060008167ffffffffffffffff81111561138457611383612439565b5b6040519080825280601f01601f1916602001820160405280156113b65781602001600182028036833780820191505090505b509050600082602001820190505b600115611419578080600190039150507f3031323334353637383961626364656600000000000000000000000000000000600a86061a8153600a858161140d5761140c6130f2565b5b049450600085036113c4575b819350505050919050565b600073ffffffffffffffffffffffffffffffffffffffff168273ffffffffffffffffffffffffffffffffffffffff1603611493576040517f08c379a000000000000000000000000000000000000000000000000000000000815260040161148a9061316d565b60405180910390fd5b61149c81611723565b156114dc576040517f08c379a00000000000000000000000000000000000000000000000000000000081526004016114d3906131d9565b60405180910390fd5b6114ea600083836001611764565b6114f381611723565b15611533576040517f08c379a000000000000000000000000000000000000000000000000000000000815260040161152a906131d9565b60405180910390fd5b6001600360008473ffffffffffffffffffffffffffffffffffffffff1673ffffffffffffffffffffffffffffffffffffffff16815260200190815260200160002060008282540192505081905550816002600083815260200190815260200160002060006101000a81548173ffffffffffffffffffffffffffffffffffffffff021916908373ffffffffffffffffffffffffffffffffffffffff160217905550808273ffffffffffffffffffffffffffffffffffffffff16600073ffffffffffffffffffffffffffffffffffffffff167fddf252ad1be2c89b69c2b068fc378daa952ba7f163c4a11628f55a4df523b3ef60405160405180910390a461163d600083836001611776565b5050565b60007f80ac58cd000000000000000000000000000000000000000000000000000000007bffffffffffffffffffffffffffffffffffffffffffffffffffffffff1916827bffffffffffffffffffffffffffffffffffffffffffffffffffffffff1916148061170c57507f5b5e139f000000000000000000000000000000000000000000000000000000007bffffffffffffffffffffffffffffffffffffffffffffffffffffffff1916827bffffffffffffffffffffffffffffffffffffffffffffffffffffffff1916145b8061171c575061171b82611a56565b5b9050919050565b60008073ffffffffffffffffffffffffffffffffffffffff166117458361113a565b73ffffffffffffffffffffffffffffffffffffffff1614159050919050565b61177084848484611ac0565b50505050565b50505050565b600061179d8473ffffffffffffffffffffffffffffffffffffffff16611c1e565b156118f6578373ffffffffffffffffffffffffffffffffffffffff1663150b7a026117c6610ceb565b8786866040518563ffffffff1660e01b81526004016117e8949392919061324e565b6020604051808303816000875af192505050801561182457506040513d601f19601f8201168201806040525081019061182191906132af565b60015b6118a6573d8060008114611854576040519150601f19603f3d011682016040523d82523d6000602084013e611859565b606091505b50600081510361189e576040517f08c379a0000000000000000000000000000000000000000000000000000000008152600401611895906130d2565b60405180910390fd5b805181602001fd5b63150b7a0260e01b7bffffffffffffffffffffffffffffffffffffffffffffffffffffffff1916817bffffffffffffffffffffffffffffffffffffffffffffffffffffffff1916149150506118fb565b600190505b949350505050565b600080600090507a184f03e93ff9f4daa797ed6e38ed64bf6a1f0100000000000000008310611961577a184f03e93ff9f4daa797ed6e38ed64bf6a1f0100000000000000008381611957576119566130f2565b5b0492506040810190505b6d04ee2d6d415b85acef8100000000831061199e576d04ee2d6d415b85acef81000000008381611994576119936130f2565b5b0492506020810190505b662386f26fc1000083106119cd57662386f26fc1000083816119c3576119c26130f2565b5b0492506010810190505b6305f5e10083106119f6576305f5e10083816119ec576119eb6130f2565b5b0492506008810190505b6127108310611a1b576127108381611a1157611a106130f2565b5b0492506004810190505b60648310611a3e5760648381611a3457611a336130f2565b5b0492506002810190505b600a8310611a4d576001810190505b80915050919050565b60007f01ffc9a7000000000000000000000000000000000000000000000000000000007bffffffffffffffffffffffffffffffffffffffffffffffffffffffff1916827bffffffffffffffffffffffffffffffffffffffffffffffffffffffff1916149050919050565b611acc84848484611c41565b6001811115611b10576040517f08c379a0000000000000000000000000000000000000000000000000000000008152600401611b079061334e565b60405180910390fd5b6000829050600073ffffffffffffffffffffffffffffffffffffffff168573ffffffffffffffffffffffffffffffffffffffff1603611b5757611b5281611d67565b611b96565b8373ffffffffffffffffffffffffffffffffffffffff168573ffffffffffffffffffffffffffffffffffffffff1614611b9557611b948582611db0565b5b5b600073ffffffffffffffffffffffffffffffffffffffff168473ffffffffffffffffffffffffffffffffffffffff1603611bd857611bd381611f1d565b611c17565b8473ffffffffffffffffffffffffffffffffffffffff168473ffffffffffffffffffffffffffffffffffffffff1614611c1657611c158482611fee565b5b5b5050505050565b6000808273ffffffffffffffffffffffffffffffffffffffff163b119050919050565b6001811115611d6157600073ffffffffffffffffffffffffffffffffffffffff168473ffffffffffffffffffffffffffffffffffffffff1614611cd55780600360008673ffffffffffffffffffffffffffffffffffffffff1673ffffffffffffffffffffffffffffffffffffffff1681526020019081526020016000206000828254611ccd9190612e9c565b925050819055505b600073ffffffffffffffffffffffffffffffffffffffff168373ffffffffffffffffffffffffffffffffffffffff1614611d605780600360008573ffffffffffffffffffffffffffffffffffffffff1673ffffffffffffffffffffffffffffffffffffffff1681526020019081526020016000206000828254611d58919061336e565b925050819055505b5b50505050565b6008805490506009600083815260200190815260200160002081905550600881908060018154018082558091505060019003906000526020600020016000909190919091505550565b60006001611dbd846108a3565b611dc79190612e9c565b9050600060076000848152602001908152602001600020549050818114611eac576000600660008673ffffffffffffffffffffffffffffffffffffffff1673ffffffffffffffffffffffffffffffffffffffff168152602001908152602001600020600084815260200190815260200160002054905080600660008773ffffffffffffffffffffffffffffffffffffffff1673ffffffffffffffffffffffffffffffffffffffff168152602001908152602001600020600084815260200190815260200160002081905550816007600083815260200190815260200160002081905550505b6007600084815260200190815260200160002060009055600660008573ffffffffffffffffffffffffffffffffffffffff1673ffffffffffffffffffffffffffffffffffffffff16815260200190815260200160002060008381526020019081526020016000206000905550505050565b60006001600880549050611f319190612e9c565b9050600060096000848152602001908152602001600020549050600060088381548110611f6157611f60612a4b565b5b906000526020600020015490508060088381548110611f8357611f82612a4b565b5b906000526020600020018190555081600960008381526020019081526020016000208190555060096000858152602001908152602001600020600090556008805480611fd257611fd16133a2565b5b6001900381819060005260206000200160009055905550505050565b6000611ff9836108a3565b905081600660008573ffffffffffffffffffffffffffffffffffffffff1673ffffffffffffffffffffffffffffffffffffffff168152602001908152602001600020600083815260200190815260200160002081905550806007600084815260200190815260200160002081905550505050565b6000604051905090565b600080fd5b600080fd5b60007fffffffff0000000000000000000000000000000000000000000000000000000082169050919050565b6120b681612081565b81146120c157600080fd5b50565b6000813590506120d3816120ad565b92915050565b6000602082840312156120ef576120ee612077565b5b60006120fd848285016120c4565b91505092915050565b60008115159050919050565b61211b81612106565b82525050565b60006020820190506121366000830184612112565b92915050565b600081519050919050565b600082825260208201905092915050565b60005b8381101561217657808201518184015260208101905061215b565b60008484015250505050565b6000601f19601f8301169050919050565b600061219e8261213c565b6121a88185612147565b93506121b8818560208601612158565b6121c181612182565b840191505092915050565b600060208201905081810360008301526121e68184612193565b905092915050565b6000819050919050565b612201816121ee565b811461220c57600080fd5b50565b60008135905061221e816121f8565b92915050565b60006020828403121561223a57612239612077565b5b60006122488482850161220f565b91505092915050565b600073ffffffffffffffffffffffffffffffffffffffff82169050919050565b600061227c82612251565b9050919050565b61228c81612271565b82525050565b60006020820190506122a76000830184612283565b92915050565b6122b681612271565b81146122c157600080fd5b50565b6000813590506122d3816122ad565b92915050565b600080604083850312156122f0576122ef612077565b5b60006122fe858286016122c4565b925050602061230f8582860161220f565b9150509250929050565b612322816121ee565b82525050565b600060208201905061233d6000830184612319565b92915050565b60008060006060848603121561235c5761235b612077565b5b600061236a868287016122c4565b935050602061237b868287016122c4565b925050604061238c8682870161220f565b9150509250925092565b6000602082840312156123ac576123ab612077565b5b60006123ba848285016122c4565b91505092915050565b6123cc81612106565b81146123d757600080fd5b50565b6000813590506123e9816123c3565b92915050565b6000806040838503121561240657612405612077565b5b6000612414858286016122c4565b9250506020612425858286016123da565b9150509250929050565b600080fd5b600080fd5b7f4e487b7100000000000000000000000000000000000000000000000000000000600052604160045260246000fd5b61247182612182565b810181811067ffffffffffffffff821117156124905761248f612439565b5b80604052505050565b60006124a361206d565b90506124af8282612468565b919050565b600067ffffffffffffffff8211156124cf576124ce612439565b5b6124d882612182565b9050602081019050919050565b82818337600083830152505050565b6000612507612502846124b4565b612499565b90508281526020810184848401111561252357612522612434565b5b61252e8482856124e5565b509392505050565b600082601f83011261254b5761254a61242f565b5b813561255b8482602086016124f4565b91505092915050565b6000806000806080858703121561257e5761257d612077565b5b600061258c878288016122c4565b945050602061259d878288016122c4565b93505060406125ae8782880161220f565b925050606085013567ffffffffffffffff8111156125cf576125ce61207c565b5b6125db87828801612536565b91505092959194509250565b600067ffffffffffffffff82111561260257612601612439565b5b61260b82612182565b9050602081019050919050565b600061262b612626846125e7565b612499565b90508281526020810184848401111561264757612646612434565b5b6126528482856124e5565b509392505050565b600082601f83011261266f5761266e61242f565b5b813561267f848260208601612618565b91505092915050565b60006020828403121561269e5761269d612077565b5b600082013567ffffffffffffffff8111156126bc576126bb61207c565b5b6126c88482850161265a565b91505092915050565b600080604083850312156126e8576126e7612077565b5b60006126f6858286016122c4565b9250506020612707858286016122c4565b9150509250929050565b7f4e487b7100000000000000000000000000000000000000000000000000000000600052602260045260246000fd5b6000600282049050600182168061275857607f821691505b60208210810361276b5761276a612711565b5b50919050565b7f4552433732313a20617070726f76616c20746f2063757272656e74206f776e6560008201527f7200000000000000000000000000000000000000000000000000000000000000602082015250565b60006127cd602183612147565b91506127d882612771565b604082019050919050565b600060208201905081810360008301526127fc816127c0565b9050919050565b7f4552433732313a20617070726f76652063616c6c6572206973206e6f7420746f60008201527f6b656e206f776e6572206f7220617070726f76656420666f7220616c6c000000602082015250565b600061285f603d83612147565b915061286a82612803565b604082019050919050565b6000602082019050818103600083015261288e81612852565b9050919050565b7f4552433732313a2063616c6c6572206973206e6f7420746f6b656e206f776e6560008201527f72206f7220617070726f76656400000000000000000000000000000000000000602082015250565b60006128f1602d83612147565b91506128fc82612895565b604082019050919050565b60006020820190508181036000830152612920816128e4565b9050919050565b7f455243373231456e756d657261626c653a206f776e657220696e646578206f7560008201527f74206f6620626f756e6473000000000000000000000000000000000000000000602082015250565b6000612983602b83612147565b915061298e82612927565b604082019050919050565b600060208201905081810360008301526129b281612976565b9050919050565b7f455243373231456e756d657261626c653a20676c6f62616c20696e646578206f60008201527f7574206f6620626f756e64730000000000000000000000000000000000000000602082015250565b6000612a15602c83612147565b9150612a20826129b9565b604082019050919050565b60006020820190508181036000830152612a4481612a08565b9050919050565b7f4e487b7100000000000000000000000000000000000000000000000000000000600052603260045260246000fd5b7f4552433732313a20696e76616c696420746f6b656e2049440000000000000000600082015250565b6000612ab0601883612147565b9150612abb82612a7a565b602082019050919050565b60006020820190508181036000830152612adf81612aa3565b9050919050565b7f4552433732313a2061646472657373207a65726f206973206e6f74206120766160008201527f6c6964206f776e65720000000000000000000000000000000000000000000000602082015250565b6000612b42602983612147565b9150612b4d82612ae6565b604082019050919050565b60006020820190508181036000830152612b7181612b35565b9050919050565b600081905092915050565b6000612b8e8261213c565b612b988185612b78565b9350612ba8818560208601612158565b80840191505092915050565b6000612bc08285612b83565b9150612bcc8284612b83565b91508190509392505050565b6000612be48284612b83565b915081905092915050565b60008190508160005260206000209050919050565b60006020601f8301049050919050565b600082821b905092915050565b600060088302612c517fffffffffffffffffffffffffffffffffffffffffffffffffffffffffffffffff82612c14565b612c5b8683612c14565b95508019841693508086168417925050509392505050565b6000819050919050565b6000612c98612c93612c8e846121ee565b612c73565b6121ee565b9050919050565b6000819050919050565b612cb283612c7d565b612cc6612cbe82612c9f565b848454612c21565b825550505050565b600090565b612cdb612cce565b612ce6818484612ca9565b505050565b5b81811015612d0a57612cff600082612cd3565b600181019050612cec565b5050565b601f821115612d4f57612d2081612bef565b612d2984612c04565b81016020851015612d38578190505b612d4c612d4485612c04565b830182612ceb565b50505b505050565b600082821c905092915050565b6000612d7260001984600802612d54565b1980831691505092915050565b6000612d8b8383612d61565b9150826002028217905092915050565b612da48261213c565b67ffffffffffffffff811115612dbd57612dbc612439565b5b612dc78254612740565b612dd2828285612d0e565b600060209050601f831160018114612e055760008415612df3578287015190505b612dfd8582612d7f565b865550612e65565b601f198416612e1386612bef565b60005b82811015612e3b57848901518255600182019150602085019450602081019050612e16565b86831015612e585784890151612e54601f891682612d61565b8355505b6001600288020188555050505b505050505050565b7f4e487b7100000000000000000000000000000000000000000000000000000000600052601160045260246000fd5b6000612ea7826121ee565b9150612eb2836121ee565b9250828203905081811115612eca57612ec9612e6d565b5b92915050565b7f4552433732313a207472616e736665722066726f6d20696e636f72726563742060008201527f6f776e6572000000000000000000000000000000000000000000000000000000602082015250565b6000612f2c602583612147565b9150612f3782612ed0565b604082019050919050565b60006020820190508181036000830152612f5b81612f1f565b9050919050565b7f4552433732313a207472616e7366657220746f20746865207a65726f2061646460008201527f7265737300000000000000000000000000000000000000000000000000000000602082015250565b6000612fbe602483612147565b9150612fc982612f62565b604082019050919050565b60006020820190508181036000830152612fed81612fb1565b9050919050565b7f4552433732313a20617070726f766520746f2063616c6c657200000000000000600082015250565b600061302a601983612147565b915061303582612ff4565b602082019050919050565b600060208201905081810360008301526130598161301d565b9050919050565b7f4552433732313a207472616e7366657220746f206e6f6e20455243373231526560008201527f63656976657220696d706c656d656e7465720000000000000000000000000000602082015250565b60006130bc603283612147565b91506130c782613060565b604082019050919050565b600060208201905081810360008301526130eb816130af565b9050919050565b7f4e487b7100000000000000000000000000000000000000000000000000000000600052601260045260246000fd5b7f4552433732313a206d696e7420746f20746865207a65726f2061646472657373600082015250565b6000613157602083612147565b915061316282613121565b602082019050919050565b600060208201905081810360008301526131868161314a565b9050919050565b7f4552433732313a20746f6b656e20616c7265616479206d696e74656400000000600082015250565b60006131c3601c83612147565b91506131ce8261318d565b602082019050919050565b600060208201905081810360008301526131f2816131b6565b9050919050565b600081519050919050565b600082825260208201905092915050565b6000613220826131f9565b61322a8185613204565b935061323a818560208601612158565b61324381612182565b840191505092915050565b60006080820190506132636000830187612283565b6132706020830186612283565b61327d6040830185612319565b818103606083015261328f8184613215565b905095945050505050565b6000815190506132a9816120ad565b92915050565b6000602082840312156132c5576132c4612077565b5b60006132d38482850161329a565b91505092915050565b7f455243373231456e756d657261626c653a20636f6e736563757469766520747260008201527f616e7366657273206e6f7420737570706f727465640000000000000000000000602082015250565b6000613338603583612147565b9150613343826132dc565b604082019050919050565b600060208201905081810360008301526133678161332b565b9050919050565b6000613379826121ee565b9150613384836121ee565b925082820190508082111561339c5761339b612e6d565b5b92915050565b7f4e487b7100000000000000000000000000000000000000000000000000000000600052603160045260246000fdfea2646970667358221220062a2e0098e2df370d6944bdd052205b678a4d3ef29b9d0812fb2dd5e2435d4c64736f6c63430008110033",
  "immutableReferences": {},
  "source": "// SPDX-License-Identifier: MIT\npragma solidity ^0.8.0;\n\nimport \"../node_modules/@openzeppelin/contracts/token/ERC721/ERC721.sol\";\nimport \"../node_modules/@openzeppelin/contracts/token/ERC721/extensions/ERC721Enumerable.sol\";\n\ncontract MintNFT is ERC721, ERC721Enumerable {\n\n    string[] public coders;\n    mapping(string => bool) _coderExists;\n\n    constructor() ERC721(\"MintNFT\", \"CC\") {\n    }\n\n    function mint(string memory _coder) public {\n        // Color \n        require(!_coderExists[_coder]);\n        coders.push(_coder);\n        uint _id = coders.length - 1;\n        _mint(msg.sender, _id);\n        _coderExists[_coder] = true;\n    }\n\nfunction _beforeTokenTransfer(address from, address to, uint256 tokenId,uint256 batchSize)\n        internal override(ERC721, ERC721Enumerable)\n    {\n        super._beforeTokenTransfer(from, to, tokenId,batchSize);\n    }\n\n\n    function supportsInterface(bytes4 interfaceId) public view\n        override(ERC721, ERC721Enumerable)\n        returns (bool)\n    {\n        return super.supportsInterface(interfaceId);\n    }\n}\n",
  "sourcePath": "C:\\0000\\Dev\\Blockchain\\Project2\\contracts\\MintNFT.sol",
  "compiler": {
    "name": "solc",
    "version": "0.8.17+commit.8df45f5f.Emscripten.clang"
  },
  "schemaVersion": "3.4.10",
  "updatedAt": "2022-11-17T05:32:43.794Z",
  "devdoc": {
    "kind": "dev",
    "methods": {
      "approve(address,uint256)": {
        "details": "See {IERC721-approve}."
      },
      "balanceOf(address)": {
        "details": "See {IERC721-balanceOf}."
      },
      "getApproved(uint256)": {
        "details": "See {IERC721-getApproved}."
      },
      "isApprovedForAll(address,address)": {
        "details": "See {IERC721-isApprovedForAll}."
      },
      "name()": {
        "details": "See {IERC721Metadata-name}."
      },
      "ownerOf(uint256)": {
        "details": "See {IERC721-ownerOf}."
      },
      "safeTransferFrom(address,address,uint256)": {
        "details": "See {IERC721-safeTransferFrom}."
      },
      "safeTransferFrom(address,address,uint256,bytes)": {
        "details": "See {IERC721-safeTransferFrom}."
      },
      "setApprovalForAll(address,bool)": {
        "details": "See {IERC721-setApprovalForAll}."
      },
      "symbol()": {
        "details": "See {IERC721Metadata-symbol}."
      },
      "tokenByIndex(uint256)": {
        "details": "See {IERC721Enumerable-tokenByIndex}."
      },
      "tokenOfOwnerByIndex(address,uint256)": {
        "details": "See {IERC721Enumerable-tokenOfOwnerByIndex}."
      },
      "tokenURI(uint256)": {
        "details": "See {IERC721Metadata-tokenURI}."
      },
      "totalSupply()": {
        "details": "See {IERC721Enumerable-totalSupply}."
      },
      "transferFrom(address,address,uint256)": {
        "details": "See {IERC721-transferFrom}."
      }
    },
    "version": 1
  },
  "userdoc": {
    "kind": "user",
    "methods": {},
    "version": 1
  }
}